{
  "_format": "hh-sol-artifact-1",
  "contractName": "LiberdusSecondary",
  "sourceName": "contracts/LiberdusSecondary.sol",
  "abi": [
    {
      "inputs": [
        {
          "internalType": "address[4]",
          "name": "_signers",
          "type": "address[4]"
        },
        {
          "internalType": "uint256",
          "name": "_chainId",
          "type": "uint256"
        }
      ],
      "stateMutability": "nonpayable",
      "type": "constructor"
    },
    {
      "inputs": [],
      "name": "ECDSAInvalidSignature",
      "type": "error"
    },
    {
      "inputs": [
        {
          "internalType": "uint256",
          "name": "length",
          "type": "uint256"
        }
      ],
      "name": "ECDSAInvalidSignatureLength",
      "type": "error"
    },
    {
      "inputs": [
        {
          "internalType": "bytes32",
          "name": "s",
          "type": "bytes32"
        }
      ],
      "name": "ECDSAInvalidSignatureS",
      "type": "error"
    },
    {
      "inputs": [
        {
          "internalType": "address",
          "name": "spender",
          "type": "address"
        },
        {
          "internalType": "uint256",
          "name": "allowance",
          "type": "uint256"
        },
        {
          "internalType": "uint256",
          "name": "needed",
          "type": "uint256"
        }
      ],
      "name": "ERC20InsufficientAllowance",
      "type": "error"
    },
    {
      "inputs": [
        {
          "internalType": "address",
          "name": "sender",
          "type": "address"
        },
        {
          "internalType": "uint256",
          "name": "balance",
          "type": "uint256"
        },
        {
          "internalType": "uint256",
          "name": "needed",
          "type": "uint256"
        }
      ],
      "name": "ERC20InsufficientBalance",
      "type": "error"
    },
    {
      "inputs": [
        {
          "internalType": "address",
          "name": "approver",
          "type": "address"
        }
      ],
      "name": "ERC20InvalidApprover",
      "type": "error"
    },
    {
      "inputs": [
        {
          "internalType": "address",
          "name": "receiver",
          "type": "address"
        }
      ],
      "name": "ERC20InvalidReceiver",
      "type": "error"
    },
    {
      "inputs": [
        {
          "internalType": "address",
          "name": "sender",
          "type": "address"
        }
      ],
      "name": "ERC20InvalidSender",
      "type": "error"
    },
    {
      "inputs": [
        {
          "internalType": "address",
          "name": "spender",
          "type": "address"
        }
      ],
      "name": "ERC20InvalidSpender",
      "type": "error"
    },
    {
      "inputs": [],
      "name": "EnforcedPause",
      "type": "error"
    },
    {
      "inputs": [],
      "name": "ExpectedPause",
      "type": "error"
    },
    {
      "inputs": [
        {
          "internalType": "address",
          "name": "owner",
          "type": "address"
        }
      ],
      "name": "OwnableInvalidOwner",
      "type": "error"
    },
    {
      "inputs": [
        {
          "internalType": "address",
          "name": "account",
          "type": "address"
        }
      ],
      "name": "OwnableUnauthorizedAccount",
      "type": "error"
    },
    {
      "inputs": [],
      "name": "ReentrancyGuardReentrantCall",
      "type": "error"
    },
    {
      "anonymous": false,
      "inputs": [
        {
          "indexed": true,
          "internalType": "address",
          "name": "owner",
          "type": "address"
        },
        {
          "indexed": true,
          "internalType": "address",
          "name": "spender",
          "type": "address"
        },
        {
          "indexed": false,
          "internalType": "uint256",
          "name": "value",
          "type": "uint256"
        }
      ],
      "name": "Approval",
      "type": "event"
    },
    {
      "anonymous": false,
      "inputs": [
        {
          "indexed": true,
          "internalType": "bytes32",
          "name": "operationId",
          "type": "bytes32"
        },
        {
          "indexed": true,
          "internalType": "address",
          "name": "newCaller",
          "type": "address"
        },
        {
          "indexed": false,
          "internalType": "uint256",
          "name": "timestamp",
          "type": "uint256"
        }
      ],
      "name": "BridgeInCallerUpdated",
      "type": "event"
    },
    {
      "anonymous": false,
      "inputs": [
        {
          "indexed": true,
          "internalType": "bytes32",
          "name": "operationId",
          "type": "bytes32"
        },
        {
          "indexed": false,
          "internalType": "uint256",
          "name": "newMaxAmount",
          "type": "uint256"
        },
        {
          "indexed": false,
          "internalType": "uint256",
          "name": "newCooldown",
          "type": "uint256"
        },
        {
          "indexed": false,
          "internalType": "uint256",
          "name": "timestamp",
          "type": "uint256"
        }
      ],
      "name": "BridgeInLimitsUpdated",
      "type": "event"
    },
    {
      "anonymous": false,
      "inputs": [
        {
          "indexed": true,
          "internalType": "address",
          "name": "to",
          "type": "address"
        },
        {
          "indexed": false,
          "internalType": "uint256",
          "name": "amount",
          "type": "uint256"
        },
        {
          "indexed": true,
          "internalType": "uint256",
          "name": "chainId",
          "type": "uint256"
        },
        {
          "indexed": true,
          "internalType": "bytes32",
          "name": "txId",
          "type": "bytes32"
        },
        {
          "indexed": false,
          "internalType": "uint256",
          "name": "timestamp",
          "type": "uint256"
        },
        {
          "indexed": false,
          "internalType": "uint256",
          "name": "sourceChainId",
          "type": "uint256"
        }
      ],
      "name": "BridgedIn",
      "type": "event"
    },
    {
      "anonymous": false,
      "inputs": [
        {
          "indexed": true,
          "internalType": "address",
          "name": "from",
          "type": "address"
        },
        {
          "indexed": false,
          "internalType": "uint256",
          "name": "amount",
          "type": "uint256"
        },
        {
          "indexed": true,
          "internalType": "address",
          "name": "targetAddress",
          "type": "address"
        },
        {
          "indexed": true,
          "internalType": "uint256",
          "name": "chainId",
          "type": "uint256"
        },
        {
          "indexed": false,
          "internalType": "uint256",
          "name": "timestamp",
          "type": "uint256"
        },
        {
          "indexed": false,
          "internalType": "uint256",
          "name": "destinationChainId",
          "type": "uint256"
        }
      ],
      "name": "BridgedOut",
      "type": "event"
    },
    {
      "anonymous": false,
      "inputs": [
        {
          "indexed": true,
          "internalType": "bytes32",
          "name": "operationId",
          "type": "bytes32"
        },
        {
          "indexed": false,
          "internalType": "bool",
          "name": "isPreLaunch",
          "type": "bool"
        },
        {
          "indexed": false,
          "internalType": "uint256",
          "name": "timestamp",
          "type": "uint256"
        }
      ],
      "name": "LaunchStateChanged",
      "type": "event"
    },
    {
      "anonymous": false,
      "inputs": [
        {
          "indexed": true,
          "internalType": "bytes32",
          "name": "operationId",
          "type": "bytes32"
        },
        {
          "indexed": true,
          "internalType": "enum LiberdusSecondary.OperationType",
          "name": "opType",
          "type": "uint8"
        }
      ],
      "name": "OperationExecuted",
      "type": "event"
    },
    {
      "anonymous": false,
      "inputs": [
        {
          "indexed": true,
          "internalType": "bytes32",
          "name": "operationId",
          "type": "bytes32"
        },
        {
          "indexed": true,
          "internalType": "enum LiberdusSecondary.OperationType",
          "name": "opType",
          "type": "uint8"
        },
        {
          "indexed": true,
          "internalType": "address",
          "name": "requester",
          "type": "address"
        },
        {
          "indexed": false,
          "internalType": "address",
          "name": "target",
          "type": "address"
        },
        {
          "indexed": false,
          "internalType": "uint256",
          "name": "value",
          "type": "uint256"
        },
        {
          "indexed": false,
          "internalType": "bytes",
          "name": "data",
          "type": "bytes"
        },
        {
          "indexed": false,
          "internalType": "uint256",
          "name": "deadline",
          "type": "uint256"
        },
        {
          "indexed": false,
          "internalType": "uint256",
          "name": "timestamp",
          "type": "uint256"
        }
      ],
      "name": "OperationRequested",
      "type": "event"
    },
    {
      "anonymous": false,
      "inputs": [
        {
          "indexed": true,
          "internalType": "address",
          "name": "previousOwner",
          "type": "address"
        },
        {
          "indexed": true,
          "internalType": "address",
          "name": "newOwner",
          "type": "address"
        }
      ],
      "name": "OwnershipTransferred",
      "type": "event"
    },
    {
      "anonymous": false,
      "inputs": [
        {
          "indexed": false,
          "internalType": "address",
          "name": "account",
          "type": "address"
        }
      ],
      "name": "Paused",
      "type": "event"
    },
    {
      "anonymous": false,
      "inputs": [
        {
          "indexed": true,
          "internalType": "bytes32",
          "name": "operationId",
          "type": "bytes32"
        },
        {
          "indexed": true,
          "internalType": "address",
          "name": "signer",
          "type": "address"
        },
        {
          "indexed": false,
          "internalType": "uint256",
          "name": "currentSignatures",
          "type": "uint256"
        },
        {
          "indexed": false,
          "internalType": "uint256",
          "name": "requiredSignatures",
          "type": "uint256"
        },
        {
          "indexed": false,
          "internalType": "uint256",
          "name": "timestamp",
          "type": "uint256"
        }
      ],
      "name": "SignatureSubmitted",
      "type": "event"
    },
    {
      "anonymous": false,
      "inputs": [
        {
          "indexed": true,
          "internalType": "bytes32",
          "name": "operationId",
          "type": "bytes32"
        },
        {
          "indexed": true,
          "internalType": "address",
          "name": "oldSigner",
          "type": "address"
        },
        {
          "indexed": true,
          "internalType": "address",
          "name": "newSigner",
          "type": "address"
        },
        {
          "indexed": false,
          "internalType": "uint256",
          "name": "timestamp",
          "type": "uint256"
        }
      ],
      "name": "SignerUpdated",
      "type": "event"
    },
    {
      "anonymous": false,
      "inputs": [
        {
          "indexed": true,
          "internalType": "address",
          "name": "from",
          "type": "address"
        },
        {
          "indexed": true,
          "internalType": "address",
          "name": "to",
          "type": "address"
        },
        {
          "indexed": false,
          "internalType": "uint256",
          "name": "value",
          "type": "uint256"
        }
      ],
      "name": "Transfer",
      "type": "event"
    },
    {
      "anonymous": false,
      "inputs": [
        {
          "indexed": false,
          "internalType": "address",
          "name": "account",
          "type": "address"
        }
      ],
      "name": "Unpaused",
      "type": "event"
    },
    {
      "inputs": [],
      "name": "DEFAULT_CHAIN_ID",
      "outputs": [
        {
          "internalType": "uint256",
          "name": "",
          "type": "uint256"
        }
      ],
      "stateMutability": "view",
      "type": "function"
    },
    {
      "inputs": [],
      "name": "OPERATION_DEADLINE",
      "outputs": [
        {
          "internalType": "uint256",
          "name": "",
          "type": "uint256"
        }
      ],
      "stateMutability": "view",
      "type": "function"
    },
    {
      "inputs": [],
      "name": "REQUIRED_SIGNATURES",
      "outputs": [
        {
          "internalType": "uint256",
          "name": "",
          "type": "uint256"
        }
      ],
      "stateMutability": "view",
      "type": "function"
    },
    {
      "inputs": [
        {
          "internalType": "address",
          "name": "owner",
          "type": "address"
        },
        {
          "internalType": "address",
          "name": "spender",
          "type": "address"
        }
      ],
      "name": "allowance",
      "outputs": [
        {
          "internalType": "uint256",
          "name": "",
          "type": "uint256"
        }
      ],
      "stateMutability": "view",
      "type": "function"
    },
    {
      "inputs": [
        {
          "internalType": "address",
          "name": "spender",
          "type": "address"
        },
        {
          "internalType": "uint256",
          "name": "value",
          "type": "uint256"
        }
      ],
      "name": "approve",
      "outputs": [
        {
          "internalType": "bool",
          "name": "",
          "type": "bool"
        }
      ],
      "stateMutability": "nonpayable",
      "type": "function"
    },
    {
      "inputs": [
        {
          "internalType": "address",
          "name": "account",
          "type": "address"
        }
      ],
      "name": "balanceOf",
      "outputs": [
        {
          "internalType": "uint256",
          "name": "",
          "type": "uint256"
        }
      ],
      "stateMutability": "view",
      "type": "function"
    },
    {
      "inputs": [
        {
          "internalType": "address",
          "name": "to",
          "type": "address"
        },
        {
          "internalType": "uint256",
          "name": "amount",
          "type": "uint256"
        },
        {
          "internalType": "uint256",
          "name": "_chainId",
          "type": "uint256"
        },
        {
          "internalType": "bytes32",
          "name": "txId",
          "type": "bytes32"
        }
      ],
      "name": "bridgeIn",
      "outputs": [],
      "stateMutability": "nonpayable",
      "type": "function"
    },
    {
      "inputs": [
        {
          "internalType": "address",
          "name": "to",
          "type": "address"
        },
        {
          "internalType": "uint256",
          "name": "amount",
          "type": "uint256"
        },
        {
          "internalType": "uint256",
          "name": "_chainId",
          "type": "uint256"
        },
        {
          "internalType": "bytes32",
          "name": "txId",
          "type": "bytes32"
        },
        {
          "internalType": "uint256",
          "name": "sourceChainId",
          "type": "uint256"
        }
      ],
      "name": "bridgeIn",
      "outputs": [],
      "stateMutability": "nonpayable",
      "type": "function"
    },
    {
      "inputs": [],
      "name": "bridgeInCaller",
      "outputs": [
        {
          "internalType": "address",
          "name": "",
          "type": "address"
        }
      ],
      "stateMutability": "view",
      "type": "function"
    },
    {
      "inputs": [],
      "name": "bridgeInCooldown",
      "outputs": [
        {
          "internalType": "uint256",
          "name": "",
          "type": "uint256"
        }
      ],
      "stateMutability": "view",
      "type": "function"
    },
    {
      "inputs": [
        {
          "internalType": "uint256",
          "name": "amount",
          "type": "uint256"
        },
        {
          "internalType": "address",
          "name": "targetAddress",
          "type": "address"
        },
        {
          "internalType": "uint256",
          "name": "_chainId",
          "type": "uint256"
        },
        {
          "internalType": "uint256",
          "name": "destinationChainId",
          "type": "uint256"
        }
      ],
      "name": "bridgeOut",
      "outputs": [],
      "stateMutability": "nonpayable",
      "type": "function"
    },
    {
      "inputs": [
        {
          "internalType": "uint256",
          "name": "amount",
          "type": "uint256"
        },
        {
          "internalType": "address",
          "name": "targetAddress",
          "type": "address"
        },
        {
          "internalType": "uint256",
          "name": "_chainId",
          "type": "uint256"
        }
      ],
      "name": "bridgeOut",
      "outputs": [],
      "stateMutability": "nonpayable",
      "type": "function"
    },
    {
      "inputs": [],
      "name": "chainId",
      "outputs": [
        {
          "internalType": "uint256",
          "name": "",
          "type": "uint256"
        }
      ],
      "stateMutability": "view",
      "type": "function"
    },
    {
      "inputs": [],
      "name": "decimals",
      "outputs": [
        {
          "internalType": "uint8",
          "name": "",
          "type": "uint8"
        }
      ],
      "stateMutability": "view",
      "type": "function"
    },
    {
      "inputs": [],
      "name": "getChainId",
      "outputs": [
        {
          "internalType": "uint256",
          "name": "",
          "type": "uint256"
        }
      ],
      "stateMutability": "view",
      "type": "function"
    },
    {
      "inputs": [
        {
          "internalType": "bytes32",
          "name": "operationId",
          "type": "bytes32"
        }
      ],
      "name": "getOperationHash",
      "outputs": [
        {
          "internalType": "bytes32",
          "name": "",
          "type": "bytes32"
        }
      ],
      "stateMutability": "view",
      "type": "function"
    },
    {
      "inputs": [
        {
          "internalType": "bytes32",
          "name": "operationId",
          "type": "bytes32"
        }
      ],
      "name": "isOperationExpired",
      "outputs": [
        {
          "internalType": "bool",
          "name": "",
          "type": "bool"
        }
      ],
      "stateMutability": "view",
      "type": "function"
    },
    {
      "inputs": [],
      "name": "isPreLaunch",
      "outputs": [
        {
          "internalType": "bool",
          "name": "",
          "type": "bool"
        }
      ],
      "stateMutability": "view",
      "type": "function"
    },
    {
      "inputs": [
        {
          "internalType": "address",
          "name": "account",
          "type": "address"
        }
      ],
      "name": "isSigner",
      "outputs": [
        {
          "internalType": "bool",
          "name": "",
          "type": "bool"
        }
      ],
      "stateMutability": "view",
      "type": "function"
    },
    {
      "inputs": [],
      "name": "lastBridgeInTime",
      "outputs": [
        {
          "internalType": "uint256",
          "name": "",
          "type": "uint256"
        }
      ],
      "stateMutability": "view",
      "type": "function"
    },
    {
      "inputs": [],
      "name": "maxBridgeInAmount",
      "outputs": [
        {
          "internalType": "uint256",
          "name": "",
          "type": "uint256"
        }
      ],
      "stateMutability": "view",
      "type": "function"
    },
    {
      "inputs": [],
      "name": "name",
      "outputs": [
        {
          "internalType": "string",
          "name": "",
          "type": "string"
        }
      ],
      "stateMutability": "view",
      "type": "function"
    },
    {
      "inputs": [],
      "name": "operationCount",
      "outputs": [
        {
          "internalType": "uint256",
          "name": "",
          "type": "uint256"
        }
      ],
      "stateMutability": "view",
      "type": "function"
    },
    {
      "inputs": [
        {
          "internalType": "bytes32",
          "name": "",
          "type": "bytes32"
        }
      ],
      "name": "operations",
      "outputs": [
        {
          "internalType": "enum LiberdusSecondary.OperationType",
          "name": "opType",
          "type": "uint8"
        },
        {
          "internalType": "address",
          "name": "target",
          "type": "address"
        },
        {
          "internalType": "uint256",
          "name": "value",
          "type": "uint256"
        },
        {
          "internalType": "bytes",
          "name": "data",
          "type": "bytes"
        },
        {
          "internalType": "uint256",
          "name": "numSignatures",
          "type": "uint256"
        },
        {
          "internalType": "bool",
          "name": "executed",
          "type": "bool"
        },
        {
          "internalType": "uint256",
          "name": "deadline",
          "type": "uint256"
        }
      ],
      "stateMutability": "view",
      "type": "function"
    },
    {
      "inputs": [],
      "name": "owner",
      "outputs": [
        {
          "internalType": "address",
          "name": "",
          "type": "address"
        }
      ],
      "stateMutability": "view",
      "type": "function"
    },
    {
      "inputs": [],
      "name": "paused",
      "outputs": [
        {
          "internalType": "bool",
          "name": "",
          "type": "bool"
        }
      ],
      "stateMutability": "view",
      "type": "function"
    },
    {
      "inputs": [],
      "name": "renounceOwnership",
      "outputs": [],
      "stateMutability": "nonpayable",
      "type": "function"
    },
    {
      "inputs": [
        {
          "internalType": "enum LiberdusSecondary.OperationType",
          "name": "opType",
          "type": "uint8"
        },
        {
          "internalType": "address",
          "name": "target",
          "type": "address"
        },
        {
          "internalType": "uint256",
          "name": "value",
          "type": "uint256"
        },
        {
          "internalType": "bytes",
          "name": "data",
          "type": "bytes"
        }
      ],
      "name": "requestOperation",
      "outputs": [
        {
          "internalType": "bytes32",
          "name": "",
          "type": "bytes32"
        }
      ],
      "stateMutability": "nonpayable",
      "type": "function"
    },
    {
      "inputs": [
        {
          "internalType": "uint256",
          "name": "",
          "type": "uint256"
        }
      ],
      "name": "signers",
      "outputs": [
        {
          "internalType": "address",
          "name": "",
          "type": "address"
        }
      ],
      "stateMutability": "view",
      "type": "function"
    },
    {
      "inputs": [
        {
          "internalType": "bytes32",
          "name": "operationId",
          "type": "bytes32"
        },
        {
          "internalType": "bytes",
          "name": "signature",
          "type": "bytes"
        }
      ],
      "name": "submitSignature",
      "outputs": [],
      "stateMutability": "nonpayable",
      "type": "function"
    },
    {
      "inputs": [],
      "name": "symbol",
      "outputs": [
        {
          "internalType": "string",
          "name": "",
          "type": "string"
        }
      ],
      "stateMutability": "view",
      "type": "function"
    },
    {
      "inputs": [],
      "name": "totalSupply",
      "outputs": [
        {
          "internalType": "uint256",
          "name": "",
          "type": "uint256"
        }
      ],
      "stateMutability": "view",
      "type": "function"
    },
    {
      "inputs": [
        {
          "internalType": "address",
          "name": "to",
          "type": "address"
        },
        {
          "internalType": "uint256",
          "name": "amount",
          "type": "uint256"
        }
      ],
      "name": "transfer",
      "outputs": [
        {
          "internalType": "bool",
          "name": "",
          "type": "bool"
        }
      ],
      "stateMutability": "nonpayable",
      "type": "function"
    },
    {
      "inputs": [
        {
          "internalType": "address",
          "name": "from",
          "type": "address"
        },
        {
          "internalType": "address",
          "name": "to",
          "type": "address"
        },
        {
          "internalType": "uint256",
          "name": "amount",
          "type": "uint256"
        }
      ],
      "name": "transferFrom",
      "outputs": [
        {
          "internalType": "bool",
          "name": "",
          "type": "bool"
        }
      ],
      "stateMutability": "nonpayable",
      "type": "function"
    },
    {
      "inputs": [
        {
          "internalType": "address",
          "name": "newOwner",
          "type": "address"
        }
      ],
      "name": "transferOwnership",
      "outputs": [],
      "stateMutability": "nonpayable",
      "type": "function"
    }
  ],
  "bytecode": "0x60a06040526001600a60006101000a81548160ff02191690831515021790555069021e19e0c9bab2400000600b55603c600c553480156200003f57600080fd5b5060405162005c2038038062005c208339818101604052810190620000659190620006b7565b336040518060400160405280600881526020017f4c696265726475730000000000000000000000000000000000000000000000008152506040518060400160405280600381526020017f4c494200000000000000000000000000000000000000000000000000000000008152508160039081620000e391906200093f565b508060049081620000f591906200093f565b5050506000600560006101000a81548160ff0219169083151502179055506001600681905550600073ffffffffffffffffffffffffffffffffffffffff168173ffffffffffffffffffffffffffffffffffffffff1603620001905760006040517f1e4fbdf700000000000000000000000000000000000000000000000000000000815260040162000187919062000a37565b60405180910390fd5b620001a1816200033e60201b60201c565b5060005b60048110156200031957600073ffffffffffffffffffffffffffffffffffffffff16838260048110620001dd57620001dc62000a54565b5b602002015173ffffffffffffffffffffffffffffffffffffffff16036200023b576040517f08c379a0000000000000000000000000000000000000000000000000000000008152600401620002329062000ae4565b60405180910390fd5b60005b8181101562000302578381600481106200025d576200025c62000a54565b5b602002015173ffffffffffffffffffffffffffffffffffffffff168483600481106200028e576200028d62000a54565b5b602002015173ffffffffffffffffffffffffffffffffffffffff1603620002ec576040517f08c379a0000000000000000000000000000000000000000000000000000000008152600401620002e39062000b56565b60405180910390fd5b8080620002f99062000ba7565b9150506200023e565b508080620003109062000ba7565b915050620001a5565b5081600e9060046200032d92919062000404565b508060808181525050505062000bf4565b6000600760009054906101000a900473ffffffffffffffffffffffffffffffffffffffff16905081600760006101000a81548173ffffffffffffffffffffffffffffffffffffffff021916908373ffffffffffffffffffffffffffffffffffffffff1602179055508173ffffffffffffffffffffffffffffffffffffffff168173ffffffffffffffffffffffffffffffffffffffff167f8be0079c531659141344cd1fd0a4f28419497f9722a3daafe3b4186f6b6457e060405160405180910390a35050565b826004810192821562000473579160200282015b82811115620004725782518260006101000a81548173ffffffffffffffffffffffffffffffffffffffff021916908373ffffffffffffffffffffffffffffffffffffffff1602179055509160200191906001019062000418565b5b50905062000482919062000486565b5090565b5b80821115620004a157600081600090555060010162000487565b5090565b6000604051905090565b600080fd5b600080fd5b6000601f19601f8301169050919050565b7f4e487b7100000000000000000000000000000000000000000000000000000000600052604160045260246000fd5b6200050482620004b9565b810181811067ffffffffffffffff82111715620005265762000525620004ca565b5b80604052505050565b60006200053b620004a5565b9050620005498282620004f9565b919050565b600067ffffffffffffffff8211156200056c576200056b620004ca565b5b602082029050919050565b600080fd5b600073ffffffffffffffffffffffffffffffffffffffff82169050919050565b6000620005a9826200057c565b9050919050565b620005bb816200059c565b8114620005c757600080fd5b50565b600081519050620005db81620005b0565b92915050565b6000620005f8620005f2846200054e565b6200052f565b9050806020840283018581111562000615576200061462000577565b5b835b818110156200064257806200062d8882620005ca565b84526020840193505060208101905062000617565b5050509392505050565b600082601f830112620006645762000663620004b4565b5b600462000673848285620005e1565b91505092915050565b6000819050919050565b62000691816200067c565b81146200069d57600080fd5b50565b600081519050620006b18162000686565b92915050565b60008060a08385031215620006d157620006d0620004af565b5b6000620006e1858286016200064c565b9250506080620006f485828601620006a0565b9150509250929050565b600081519050919050565b7f4e487b7100000000000000000000000000000000000000000000000000000000600052602260045260246000fd5b600060028204905060018216806200075157607f821691505b60208210810362000767576200076662000709565b5b50919050565b60008190508160005260206000209050919050565b60006020601f8301049050919050565b600082821b905092915050565b600060088302620007d17fffffffffffffffffffffffffffffffffffffffffffffffffffffffffffffffff8262000792565b620007dd868362000792565b95508019841693508086168417925050509392505050565b6000819050919050565b6000620008206200081a62000814846200067c565b620007f5565b6200067c565b9050919050565b6000819050919050565b6200083c83620007ff565b620008546200084b8262000827565b8484546200079f565b825550505050565b600090565b6200086b6200085c565b6200087881848462000831565b505050565b5b81811015620008a0576200089460008262000861565b6001810190506200087e565b5050565b601f821115620008ef57620008b9816200076d565b620008c48462000782565b81016020851015620008d4578190505b620008ec620008e38562000782565b8301826200087d565b50505b505050565b600082821c905092915050565b60006200091460001984600802620008f4565b1980831691505092915050565b60006200092f838362000901565b9150826002028217905092915050565b6200094a82620006fe565b67ffffffffffffffff811115620009665762000965620004ca565b5b62000972825462000738565b6200097f828285620008a4565b600060209050601f831160018114620009b75760008415620009a2578287015190505b620009ae858262000921565b86555062000a1e565b601f198416620009c7866200076d565b60005b82811015620009f157848901518255600182019150602085019450602081019050620009ca565b8683101562000a11578489015162000a0d601f89168262000901565b8355505b6001600288020188555050505b505050505050565b62000a31816200059c565b82525050565b600060208201905062000a4e600083018462000a26565b92915050565b7f4e487b7100000000000000000000000000000000000000000000000000000000600052603260045260246000fd5b600082825260208201905092915050565b7f496e76616c6964207369676e6572206164647265737300000000000000000000600082015250565b600062000acc60168362000a83565b915062000ad98262000a94565b602082019050919050565b6000602082019050818103600083015262000aff8162000abd565b9050919050565b7f4475706c6963617465207369676e657220616464726573730000000000000000600082015250565b600062000b3e60188362000a83565b915062000b4b8262000b06565b602082019050919050565b6000602082019050818103600083015262000b718162000b2f565b9050919050565b7f4e487b7100000000000000000000000000000000000000000000000000000000600052601160045260246000fd5b600062000bb4826200067c565b91507fffffffffffffffffffffffffffffffffffffffffffffffffffffffffffffffff820362000be95762000be862000b78565b5b600182019050919050565b608051614fed62000c336000396000818161073501528181610a1401528181610c50015281816110a2015281816112fe0152611b140152614fed6000f3fe608060405234801561001057600080fd5b50600436106102105760003560e01c8063715018a611610125578063b28fd349116100ad578063df6158ba1161007c578063df6158ba14610639578063e4a1b77714610655578063eca3490014610673578063f2fde38b1461068f578063f91ea947146106ab57610210565b8063b28fd34914610597578063bb2da2eb146105b5578063c74f349b146105d3578063dd62ed3e1461060957610210565b806393988770116100f457806393988770146104dd57806395d89b411461050d5780639a8a05921461052b5780639ac18b1914610549578063a9059cbb1461056757610210565b8063715018a6146104695780637df73e27146104735780638da5cb5b146104a3578063914889c0146104c157610210565b8063313ce567116101a85780635c975abb116101775780635c975abb146103b1578063603ad8ad146103cf578063625cf366146103ed5780636a3871d91461041d57806370a082311461043957610210565b8063313ce567146103395780633408e4701461035757806343ea1996146103755780635834e9de1461039357610210565b806319fd6f46116101e457806319fd6f461461029d5780632079fb9a146102bb57806323b872dd146102eb57806323d3c1421461031b57610210565b8062dc525e1461021557806306fdde0314610231578063095ea7b31461024f57806318160ddd1461027f575b600080fd5b61022f600480360381019061022a91906131b7565b6106db565b005b6102396108e8565b60405161024691906132ae565b60405180910390f35b610269600480360381019061026491906132d0565b61097a565b604051610276919061332b565b60405180910390f35b61028761099d565b6040516102949190613355565b60405180910390f35b6102a56109a7565b6040516102b29190613355565b60405180910390f35b6102d560048036038101906102d09190613370565b6109ad565b6040516102e291906133ac565b60405180910390f35b610305600480360381019061030091906133c7565b6109e3565b604051610312919061332b565b60405180910390f35b610323610a01565b6040516103309190613355565b60405180910390f35b610341610a07565b60405161034e9190613436565b60405180910390f35b61035f610a10565b60405161036c9190613355565b60405180910390f35b61037d610a38565b60405161038a9190613355565b60405180910390f35b61039b610a3d565b6040516103a89190613355565b60405180910390f35b6103b9610a43565b6040516103c6919061332b565b60405180910390f35b6103d7610a5a565b6040516103e49190613355565b60405180910390f35b610407600480360381019061040291906135ab565b610a60565b6040516104149190613647565b60405180910390f35b6104376004803603810190610432919061368e565b610de5565b005b610453600480360381019061044e91906136f5565b610e91565b6040516104609190613355565b60405180910390f35b610471610ed9565b005b61048d600480360381019061048891906136f5565b610eed565b60405161049a919061332b565b60405180910390f35b6104ab610f8e565b6040516104b891906133ac565b60405180910390f35b6104db60048036038101906104d69190613722565b610fb8565b005b6104f760048036038101906104f2919061379d565b611248565b604051610504919061332b565b60405180910390f35b61051561126a565b60405161052291906132ae565b60405180910390f35b6105336112fc565b6040516105409190613355565b60405180910390f35b610551611320565b60405161055e9190613355565b60405180910390f35b610581600480360381019061057c91906132d0565b611325565b60405161058e919061332b565b60405180910390f35b61059f611341565b6040516105ac919061332b565b60405180910390f35b6105bd611354565b6040516105ca9190613355565b60405180910390f35b6105ed60048036038101906105e8919061379d565b61135b565b6040516106009796959493929190613896565b60405180910390f35b610623600480360381019061061e919061390c565b61145f565b6040516106309190613355565b60405180910390f35b610653600480360381019061064e919061394c565b6114e6565b005b61065d6119f3565b60405161066a91906133ac565b60405180910390f35b61068d600480360381019061068891906139a8565b611a19565b005b6106a960048036038101906106a491906136f5565b611a33565b005b6106c560048036038101906106c0919061379d565b611ab9565b6040516106d29190613647565b60405180910390f35b6106e3611b66565b600a60009054906101000a900460ff1615610733576040517f08c379a000000000000000000000000000000000000000000000000000000000815260040161072a90613a6d565b60405180910390fd5b7f00000000000000000000000000000000000000000000000000000000000000008214610795576040517f08c379a000000000000000000000000000000000000000000000000000000000815260040161078c90613ad9565b60405180910390fd5b600081146107e0578181036107df576040517f08c379a00000000000000000000000000000000000000000000000000000000081526004016107d690613b6b565b60405180910390fd5b5b60008411610823576040517f08c379a000000000000000000000000000000000000000000000000000000000815260040161081a90613bd7565b60405180910390fd5b61082c33610e91565b84111561086e576040517f08c379a000000000000000000000000000000000000000000000000000000000815260040161086590613c43565b60405180910390fd5b6108783385611ba7565b818373ffffffffffffffffffffffffffffffffffffffff163373ffffffffffffffffffffffffffffffffffffffff167f69196696c42c89516e6aa6bd818ddd5aee741919a0f7ea69b066ed15278463528742866040516108da93929190613c63565b60405180910390a450505050565b6060600380546108f790613cc9565b80601f016020809104026020016040519081016040528092919081815260200182805461092390613cc9565b80156109705780601f1061094557610100808354040283529160200191610970565b820191906000526020600020905b81548152906001019060200180831161095357829003601f168201915b5050505050905090565b600080610985611c29565b9050610992818585611c31565b600191505092915050565b6000600254905090565b600b5481565b600e81600481106109bd57600080fd5b016000915054906101000a900473ffffffffffffffffffffffffffffffffffffffff1681565b60006109ed611b66565b6109f8848484611c43565b90509392505050565b60095481565b60006012905090565b60007f0000000000000000000000000000000000000000000000000000000000000000905090565b600081565b600d5481565b6000600560009054906101000a900460ff16905090565b600c5481565b6000610a6b33610eed565b80610aa857503373ffffffffffffffffffffffffffffffffffffffff16610a90610f8e565b73ffffffffffffffffffffffffffffffffffffffff16145b610ae7576040517f08c379a0000000000000000000000000000000000000000000000000000000008152600401610ade90613d6c565b60405180910390fd5b600580811115610afa57610af96137ca565b5b856005811115610b0d57610b0c6137ca565b5b03610c1e5760008490506000849050610b2582610eed565b610b64576040517f08c379a0000000000000000000000000000000000000000000000000000000008152600401610b5b90613dd8565b60405180910390fd5b610b6d81610eed565b15610bad576040517f08c379a0000000000000000000000000000000000000000000000000000000008152600401610ba490613e44565b60405180910390fd5b3373ffffffffffffffffffffffffffffffffffffffff168273ffffffffffffffffffffffffffffffffffffffff1603610c1b576040517f08c379a0000000000000000000000000000000000000000000000000000000008152600401610c1290613eb0565b60405180910390fd5b50505b60006203f48042610c2f9190613eff565b9050600060096000815480929190610c4690613f33565b91905055878787877f0000000000000000000000000000000000000000000000000000000000000000604051602001610c8496959493929190614056565b6040516020818303038152906040528051906020012090506000600860008381526020019081526020016000209050878160000160006101000a81548160ff02191690836005811115610cda57610cd96137ca565b5b0217905550868160000160016101000a81548173ffffffffffffffffffffffffffffffffffffffff021916908373ffffffffffffffffffffffffffffffffffffffff16021790555085816001018190555084816002019081610d3c919061426e565b5060008160040160006101000a81548160ff021916908315150217905550600081600301819055508281600501819055503373ffffffffffffffffffffffffffffffffffffffff16886005811115610d9757610d966137ca565b5b837fa011c66382012750126c5fd78e1016566e3256c04d1cc9cc2045f81a5f5fa98c8a8a8a8942604051610dcf959493929190614340565b60405180910390a4819350505050949350505050565b600a60019054906101000a900473ffffffffffffffffffffffffffffffffffffffff1673ffffffffffffffffffffffffffffffffffffffff163373ffffffffffffffffffffffffffffffffffffffff1614610e75576040517f08c379a0000000000000000000000000000000000000000000000000000000008152600401610e6c906143e6565b60405180910390fd5b610e7d611b66565b610e8b848484846000610fb8565b50505050565b60008060008373ffffffffffffffffffffffffffffffffffffffff1673ffffffffffffffffffffffffffffffffffffffff168152602001908152602001600020549050919050565b610ee1611c72565b610eeb6000611cf9565b565b600080600090505b6004811015610f83578273ffffffffffffffffffffffffffffffffffffffff16600e8260048110610f2957610f28614406565b5b0160009054906101000a900473ffffffffffffffffffffffffffffffffffffffff1673ffffffffffffffffffffffffffffffffffffffff1603610f70576001915050610f89565b8080610f7b90613f33565b915050610ef5565b50600090505b919050565b6000600760009054906101000a900473ffffffffffffffffffffffffffffffffffffffff16905090565b600a60019054906101000a900473ffffffffffffffffffffffffffffffffffffffff1673ffffffffffffffffffffffffffffffffffffffff163373ffffffffffffffffffffffffffffffffffffffff1614611048576040517f08c379a000000000000000000000000000000000000000000000000000000000815260040161103f906143e6565b60405180910390fd5b611050611b66565b600a60009054906101000a900460ff16156110a0576040517f08c379a0000000000000000000000000000000000000000000000000000000008152600401611097906144a7565b60405180910390fd5b7f00000000000000000000000000000000000000000000000000000000000000008314611102576040517f08c379a00000000000000000000000000000000000000000000000000000000081526004016110f990613ad9565b60405180910390fd5b60008411611145576040517f08c379a000000000000000000000000000000000000000000000000000000000815260040161113c90614513565b60405180910390fd5b600b5484111561118a576040517f08c379a00000000000000000000000000000000000000000000000000000000081526004016111819061457f565b60405180910390fd5b600c54600d5461119a9190613eff565b4210156111dc576040517f08c379a00000000000000000000000000000000000000000000000000000000081526004016111d3906145eb565b60405180910390fd5b6111e68585611dbf565b42600d8190555081838673ffffffffffffffffffffffffffffffffffffffff167f5298f0a33ce819a7845027bb163b3021aa9a854f6f76bfb0020ffe1dfbfceb2f87428660405161123993929190613c63565b60405180910390a45050505050565b6000600860008381526020019081526020016000206005015442119050919050565b60606004805461127990613cc9565b80601f01602080910402602001604051908101604052809291908181526020018280546112a590613cc9565b80156112f25780601f106112c7576101008083540402835291602001916112f2565b820191906000526020600020905b8154815290600101906020018083116112d557829003601f168201915b5050505050905090565b7f000000000000000000000000000000000000000000000000000000000000000081565b600381565b600061132f611b66565b6113398383611e41565b905092915050565b600a60009054906101000a900460ff1681565b6203f48081565b60086020528060005260406000206000915090508060000160009054906101000a900460ff16908060000160019054906101000a900473ffffffffffffffffffffffffffffffffffffffff16908060010154908060020180546113bd90613cc9565b80601f01602080910402602001604051908101604052809291908181526020018280546113e990613cc9565b80156114365780601f1061140b57610100808354040283529160200191611436565b820191906000526020600020905b81548152906001019060200180831161141957829003601f168201915b5050505050908060030154908060040160009054906101000a900460ff16908060050154905087565b6000600160008473ffffffffffffffffffffffffffffffffffffffff1673ffffffffffffffffffffffffffffffffffffffff16815260200190815260200160002060008373ffffffffffffffffffffffffffffffffffffffff1673ffffffffffffffffffffffffffffffffffffffff16815260200190815260200160002054905092915050565b6114ef33610eed565b61152e576040517f08c379a00000000000000000000000000000000000000000000000000000000081526004016115259061467d565b60405180910390fd5b60006008600084815260200190815260200160002090508060040160009054906101000a900460ff1615611597576040517f08c379a000000000000000000000000000000000000000000000000000000000815260040161158e906146e9565b60405180910390fd5b8060060160003373ffffffffffffffffffffffffffffffffffffffff1673ffffffffffffffffffffffffffffffffffffffff16815260200190815260200160002060009054906101000a900460ff1615611626576040517f08c379a000000000000000000000000000000000000000000000000000000000815260040161161d90614755565b60405180910390fd5b806005015442111561166d576040517f08c379a0000000000000000000000000000000000000000000000000000000008152600401611664906147c1565b60405180910390fd5b600061167884611ab9565b905060008160405160200161168d9190614859565b60405160208183030381529060405280519060200120905060006116b18286611e64565b90503373ffffffffffffffffffffffffffffffffffffffff168173ffffffffffffffffffffffffffffffffffffffff1614611721576040517f08c379a0000000000000000000000000000000000000000000000000000000008152600401611718906148f1565b60405180910390fd5b600580811115611734576117336137ca565b5b8460000160009054906101000a900460ff166005811115611758576117576137ca565b5b036118795761176681610eed565b806117a35750611774610f8e565b73ffffffffffffffffffffffffffffffffffffffff168173ffffffffffffffffffffffffffffffffffffffff16145b6117e2576040517f08c379a00000000000000000000000000000000000000000000000000000000081526004016117d990614983565b60405180910390fd5b8360000160019054906101000a900473ffffffffffffffffffffffffffffffffffffffff1673ffffffffffffffffffffffffffffffffffffffff168173ffffffffffffffffffffffffffffffffffffffff1603611874576040517f08c379a000000000000000000000000000000000000000000000000000000000815260040161186b90614a15565b60405180910390fd5b6118c2565b61188281610eed565b6118c1576040517f08c379a00000000000000000000000000000000000000000000000000000000081526004016118b890614a81565b60405180910390fd5b5b6003846003015410611909576040517f08c379a000000000000000000000000000000000000000000000000000000000815260040161190090614aed565b60405180910390fd5b60018460060160008373ffffffffffffffffffffffffffffffffffffffff1673ffffffffffffffffffffffffffffffffffffffff16815260200190815260200160002060006101000a81548160ff02191690831515021790555083600301600081548092919061197890613f33565b91905055508073ffffffffffffffffffffffffffffffffffffffff16867f08fd08172fcea5acf5a0736b281cd7a25f510f6192abd379b036cae0f064d85486600301546003426040516119cd93929190613c63565b60405180910390a360038460030154036119eb576119ea86611e90565b5b505050505050565b600a60019054906101000a900473ffffffffffffffffffffffffffffffffffffffff1681565b611a21611b66565b611a2e83838360006106db565b505050565b611a3b611c72565b600073ffffffffffffffffffffffffffffffffffffffff168173ffffffffffffffffffffffffffffffffffffffff1603611aad5760006040517f1e4fbdf7000000000000000000000000000000000000000000000000000000008152600401611aa491906133ac565b60405180910390fd5b611ab681611cf9565b50565b600080600860008481526020019081526020016000209050828160000160009054906101000a900460ff168260000160019054906101000a900473ffffffffffffffffffffffffffffffffffffffff168360010154846002017f0000000000000000000000000000000000000000000000000000000000000000604051602001611b4896959493929190614b90565b60405160208183030381529060405280519060200120915050919050565b611b6e610a43565b15611ba5576040517fd93c066500000000000000000000000000000000000000000000000000000000815260040160405180910390fd5b565b600073ffffffffffffffffffffffffffffffffffffffff168273ffffffffffffffffffffffffffffffffffffffff1603611c195760006040517f96c6fd1e000000000000000000000000000000000000000000000000000000008152600401611c1091906133ac565b60405180910390fd5b611c258260008361226e565b5050565b600033905090565b611c3e8383836001612286565b505050565b600080611c4e611c29565b9050611c5b85828561245d565b611c668585856124f1565b60019150509392505050565b611c7a611c29565b73ffffffffffffffffffffffffffffffffffffffff16611c98610f8e565b73ffffffffffffffffffffffffffffffffffffffff1614611cf757611cbb611c29565b6040517f118cdaa7000000000000000000000000000000000000000000000000000000008152600401611cee91906133ac565b60405180910390fd5b565b6000600760009054906101000a900473ffffffffffffffffffffffffffffffffffffffff16905081600760006101000a81548173ffffffffffffffffffffffffffffffffffffffff021916908373ffffffffffffffffffffffffffffffffffffffff1602179055508173ffffffffffffffffffffffffffffffffffffffff168173ffffffffffffffffffffffffffffffffffffffff167f8be0079c531659141344cd1fd0a4f28419497f9722a3daafe3b4186f6b6457e060405160405180910390a35050565b600073ffffffffffffffffffffffffffffffffffffffff168273ffffffffffffffffffffffffffffffffffffffff1603611e315760006040517fec442f05000000000000000000000000000000000000000000000000000000008152600401611e2891906133ac565b60405180910390fd5b611e3d6000838361226e565b5050565b600080611e4c611c29565b9050611e598185856124f1565b600191505092915050565b600080600080611e7486866125e5565b925092509250611e848282612641565b82935050505092915050565b611e986127a5565b60006008600083815260200190815260200160002090508060040160009054906101000a900460ff1615611f01576040517f08c379a0000000000000000000000000000000000000000000000000000000008152600401611ef8906146e9565b60405180910390fd5b60018160040160006101000a81548160ff021916908315150217905550600580811115611f3157611f306137ca565b5b8160000160009054906101000a900460ff166005811115611f5557611f546137ca565b5b03611f9257611f8d828260000160019054906101000a900473ffffffffffffffffffffffffffffffffffffffff1683600101546127eb565b612211565b60006005811115611fa657611fa56137ca565b5b8160000160009054906101000a900460ff166005811115611fca57611fc96137ca565b5b03611fdd57611fd8826129c8565b612210565b60016005811115611ff157611ff06137ca565b5b8160000160009054906101000a900460ff166005811115612015576120146137ca565b5b0361202757612022612a7e565b61220f565b6002600581111561203b5761203a6137ca565b5b8160000160009054906101000a900460ff16600581111561205f5761205e6137ca565b5b036120715761206c612ae1565b61220e565b60036005811115612085576120846137ca565b5b8160000160009054906101000a900460ff1660058111156120a9576120a86137ca565b5b036120e1576120dc828260000160019054906101000a900473ffffffffffffffffffffffffffffffffffffffff16612b44565b61220d565b600460058111156120f5576120f46137ca565b5b8160000160009054906101000a900460ff166005811115612119576121186137ca565b5b036121d1576121cc82826001015483600201805461213690613cc9565b80601f016020809104026020016040519081016040528092919081815260200182805461216290613cc9565b80156121af5780601f10612184576101008083540402835291602001916121af565b820191906000526020600020905b81548152906001019060200180831161219257829003601f168201915b50505050508060200190518101906121c79190614c11565b612cd7565b61220c565b6040517f08c379a000000000000000000000000000000000000000000000000000000000815260040161220390614c8a565b60405180910390fd5b5b5b5b5b5b8060000160009054906101000a900460ff166005811115612235576122346137ca565b5b827f289dad4ed16f1a5875c2cb2c881afd38eeeae5b1c1aee0f8dce6d6593a2ce0eb60405160405180910390a35061226b612dac565b50565b612276611b66565b612281838383612db6565b505050565b600073ffffffffffffffffffffffffffffffffffffffff168473ffffffffffffffffffffffffffffffffffffffff16036122f85760006040517fe602df050000000000000000000000000000000000000000000000000000000081526004016122ef91906133ac565b60405180910390fd5b600073ffffffffffffffffffffffffffffffffffffffff168373ffffffffffffffffffffffffffffffffffffffff160361236a5760006040517f94280d6200000000000000000000000000000000000000000000000000000000815260040161236191906133ac565b60405180910390fd5b81600160008673ffffffffffffffffffffffffffffffffffffffff1673ffffffffffffffffffffffffffffffffffffffff16815260200190815260200160002060008573ffffffffffffffffffffffffffffffffffffffff1673ffffffffffffffffffffffffffffffffffffffff168152602001908152602001600020819055508015612457578273ffffffffffffffffffffffffffffffffffffffff168473ffffffffffffffffffffffffffffffffffffffff167f8c5be1e5ebec7d5bd14f71427d1e84f3dd0314c0f7b2291e5b200ac8c7c3b9258460405161244e9190613355565b60405180910390a35b50505050565b6000612469848461145f565b90507fffffffffffffffffffffffffffffffffffffffffffffffffffffffffffffffff81146124eb57818110156124db578281836040517ffb8f41b20000000000000000000000000000000000000000000000000000000081526004016124d293929190614caa565b60405180910390fd5b6124ea84848484036000612286565b5b50505050565b600073ffffffffffffffffffffffffffffffffffffffff168373ffffffffffffffffffffffffffffffffffffffff16036125635760006040517f96c6fd1e00000000000000000000000000000000000000000000000000000000815260040161255a91906133ac565b60405180910390fd5b600073ffffffffffffffffffffffffffffffffffffffff168273ffffffffffffffffffffffffffffffffffffffff16036125d55760006040517fec442f050000000000000000000000000000000000000000000000000000000081526004016125cc91906133ac565b60405180910390fd5b6125e083838361226e565b505050565b6000806000604184510361262a5760008060006020870151925060408701519150606087015160001a905061261c88828585612fdb565b95509550955050505061263a565b60006002855160001b9250925092505b9250925092565b60006003811115612655576126546137ca565b5b826003811115612668576126676137ca565b5b03156127a15760016003811115612682576126816137ca565b5b826003811115612695576126946137ca565b5b036126cc576040517ff645eedf00000000000000000000000000000000000000000000000000000000815260040160405180910390fd5b600260038111156126e0576126df6137ca565b5b8260038111156126f3576126f26137ca565b5b03612738578060001c6040517ffce698f700000000000000000000000000000000000000000000000000000000815260040161272f9190613355565b60405180910390fd5b60038081111561274b5761274a6137ca565b5b82600381111561275e5761275d6137ca565b5b036127a057806040517fd78bce0c0000000000000000000000000000000000000000000000000000000081526004016127979190613647565b60405180910390fd5b5b5050565b6002600654036127e1576040517f3ee5aeb500000000000000000000000000000000000000000000000000000000815260040160405180910390fd5b6002600681905550565b6127f482610eed565b612833576040517f08c379a000000000000000000000000000000000000000000000000000000000815260040161282a90613dd8565b60405180910390fd5b61283c81610eed565b1561287c576040517f08c379a000000000000000000000000000000000000000000000000000000000815260040161287390613e44565b60405180910390fd5b60005b600481101561295c578273ffffffffffffffffffffffffffffffffffffffff16600e82600481106128b3576128b2614406565b5b0160009054906101000a900473ffffffffffffffffffffffffffffffffffffffff1673ffffffffffffffffffffffffffffffffffffffff16036129495781600e826004811061290557612904614406565b5b0160006101000a81548173ffffffffffffffffffffffffffffffffffffffff021916908373ffffffffffffffffffffffffffffffffffffffff16021790555061295c565b808061295490613f33565b91505061287f565b508073ffffffffffffffffffffffffffffffffffffffff168273ffffffffffffffffffffffffffffffffffffffff16847f4c9177a34b5732173b48f1018fc5bdebb32efb1b22916b5e2a8054f61cd8300c426040516129bb9190613355565b60405180910390a4505050565b600a60009054906101000a900460ff16612a17576040517f08c379a0000000000000000000000000000000000000000000000000000000008152600401612a0e90614d2d565b60405180910390fd5b6000600a60006101000a81548160ff021916908315150217905550807fa7beaf5867ed75bdb9532221346475be435263b9c2b5d94cd653d231ef708bed600a60009054906101000a900460ff1642604051612a73929190614d4d565b60405180910390a250565b612a86611b66565b6001600560006101000a81548160ff0219169083151502179055507f62e78cea01bee320cd4e420270b5ea74000d11b0c9f74754ebdbfc544b05a258612aca611c29565b604051612ad791906133ac565b60405180910390a1565b612ae96130cf565b6000600560006101000a81548160ff0219169083151502179055507f5db9ee0a495bf2e6ff9c91a7834c1ba4fdd244a5e8aa4e537bd38aeae4b073aa612b2d611c29565b604051612b3a91906133ac565b60405180910390a1565b600073ffffffffffffffffffffffffffffffffffffffff168173ffffffffffffffffffffffffffffffffffffffff1603612bb3576040517f08c379a0000000000000000000000000000000000000000000000000000000008152600401612baa90614dc2565b60405180910390fd5b600a60019054906101000a900473ffffffffffffffffffffffffffffffffffffffff1673ffffffffffffffffffffffffffffffffffffffff168173ffffffffffffffffffffffffffffffffffffffff1603612c43576040517f08c379a0000000000000000000000000000000000000000000000000000000008152600401612c3a90614e2e565b60405180910390fd5b80600a60016101000a81548173ffffffffffffffffffffffffffffffffffffffff021916908373ffffffffffffffffffffffffffffffffffffffff1602179055508073ffffffffffffffffffffffffffffffffffffffff16827f69c7befbb465fe1301816b9d77797de9b2c739a48777e21e84f5c248fe7d30bc42604051612ccb9190613355565b60405180910390a35050565b60008211612d1a576040517f08c379a0000000000000000000000000000000000000000000000000000000008152600401612d1190614ec0565b60405180910390fd5b60008111612d5d576040517f08c379a0000000000000000000000000000000000000000000000000000000008152600401612d5490614f52565b60405180910390fd5b81600b8190555080600c81905550827f7b95cdf85cd2effb0753e33c5d171ef3ef06f7fedf995a97fd715c4a3d27a382838342604051612d9f93929190613c63565b60405180910390a2505050565b6001600681905550565b600073ffffffffffffffffffffffffffffffffffffffff168373ffffffffffffffffffffffffffffffffffffffff1603612e08578060026000828254612dfc9190613eff565b92505081905550612edb565b60008060008573ffffffffffffffffffffffffffffffffffffffff1673ffffffffffffffffffffffffffffffffffffffff16815260200190815260200160002054905081811015612e94578381836040517fe450d38c000000000000000000000000000000000000000000000000000000008152600401612e8b93929190614caa565b60405180910390fd5b8181036000808673ffffffffffffffffffffffffffffffffffffffff1673ffffffffffffffffffffffffffffffffffffffff16815260200190815260200160002081905550505b600073ffffffffffffffffffffffffffffffffffffffff168273ffffffffffffffffffffffffffffffffffffffff1603612f245780600260008282540392505081905550612f71565b806000808473ffffffffffffffffffffffffffffffffffffffff1673ffffffffffffffffffffffffffffffffffffffff168152602001908152602001600020600082825401925050819055505b8173ffffffffffffffffffffffffffffffffffffffff168373ffffffffffffffffffffffffffffffffffffffff167fddf252ad1be2c89b69c2b068fc378daa952ba7f163c4a11628f55a4df523b3ef83604051612fce9190613355565b60405180910390a3505050565b60008060007f7fffffffffffffffffffffffffffffff5d576e7357a4501ddfe92f46681b20a08460001c111561301b5760006003859250925092506130c5565b6000600188888888604051600081526020016040526040516130409493929190614f72565b6020604051602081039080840390855afa158015613062573d6000803e3d6000fd5b505050602060405103519050600073ffffffffffffffffffffffffffffffffffffffff168173ffffffffffffffffffffffffffffffffffffffff16036130b657600060016000801b935093509350506130c5565b8060008060001b935093509350505b9450945094915050565b6130d7610a43565b61310d576040517f8dfc202b00000000000000000000000000000000000000000000000000000000815260040160405180910390fd5b565b6000604051905090565b600080fd5b600080fd5b6000819050919050565b61313681613123565b811461314157600080fd5b50565b6000813590506131538161312d565b92915050565b600073ffffffffffffffffffffffffffffffffffffffff82169050919050565b600061318482613159565b9050919050565b61319481613179565b811461319f57600080fd5b50565b6000813590506131b18161318b565b92915050565b600080600080608085870312156131d1576131d0613119565b5b60006131df87828801613144565b94505060206131f0878288016131a2565b935050604061320187828801613144565b925050606061321287828801613144565b91505092959194509250565b600081519050919050565b600082825260208201905092915050565b60005b8381101561325857808201518184015260208101905061323d565b60008484015250505050565b6000601f19601f8301169050919050565b60006132808261321e565b61328a8185613229565b935061329a81856020860161323a565b6132a381613264565b840191505092915050565b600060208201905081810360008301526132c88184613275565b905092915050565b600080604083850312156132e7576132e6613119565b5b60006132f5858286016131a2565b925050602061330685828601613144565b9150509250929050565b60008115159050919050565b61332581613310565b82525050565b6000602082019050613340600083018461331c565b92915050565b61334f81613123565b82525050565b600060208201905061336a6000830184613346565b92915050565b60006020828403121561338657613385613119565b5b600061339484828501613144565b91505092915050565b6133a681613179565b82525050565b60006020820190506133c1600083018461339d565b92915050565b6000806000606084860312156133e0576133df613119565b5b60006133ee868287016131a2565b93505060206133ff868287016131a2565b925050604061341086828701613144565b9150509250925092565b600060ff82169050919050565b6134308161341a565b82525050565b600060208201905061344b6000830184613427565b92915050565b6006811061345e57600080fd5b50565b60008135905061347081613451565b92915050565b600080fd5b600080fd5b7f4e487b7100000000000000000000000000000000000000000000000000000000600052604160045260246000fd5b6134b882613264565b810181811067ffffffffffffffff821117156134d7576134d6613480565b5b80604052505050565b60006134ea61310f565b90506134f682826134af565b919050565b600067ffffffffffffffff82111561351657613515613480565b5b61351f82613264565b9050602081019050919050565b82818337600083830152505050565b600061354e613549846134fb565b6134e0565b90508281526020810184848401111561356a5761356961347b565b5b61357584828561352c565b509392505050565b600082601f83011261359257613591613476565b5b81356135a284826020860161353b565b91505092915050565b600080600080608085870312156135c5576135c4613119565b5b60006135d387828801613461565b94505060206135e4878288016131a2565b93505060406135f587828801613144565b925050606085013567ffffffffffffffff8111156136165761361561311e565b5b6136228782880161357d565b91505092959194509250565b6000819050919050565b6136418161362e565b82525050565b600060208201905061365c6000830184613638565b92915050565b61366b8161362e565b811461367657600080fd5b50565b60008135905061368881613662565b92915050565b600080600080608085870312156136a8576136a7613119565b5b60006136b6878288016131a2565b94505060206136c787828801613144565b93505060406136d887828801613144565b92505060606136e987828801613679565b91505092959194509250565b60006020828403121561370b5761370a613119565b5b6000613719848285016131a2565b91505092915050565b600080600080600060a0868803121561373e5761373d613119565b5b600061374c888289016131a2565b955050602061375d88828901613144565b945050604061376e88828901613144565b935050606061377f88828901613679565b925050608061379088828901613144565b9150509295509295909350565b6000602082840312156137b3576137b2613119565b5b60006137c184828501613679565b91505092915050565b7f4e487b7100000000000000000000000000000000000000000000000000000000600052602160045260246000fd5b6006811061380a576138096137ca565b5b50565b600081905061381b826137f9565b919050565b600061382b8261380d565b9050919050565b61383b81613820565b82525050565b600081519050919050565b600082825260208201905092915050565b600061386882613841565b613872818561384c565b935061388281856020860161323a565b61388b81613264565b840191505092915050565b600060e0820190506138ab600083018a613832565b6138b8602083018961339d565b6138c56040830188613346565b81810360608301526138d7818761385d565b90506138e66080830186613346565b6138f360a083018561331c565b61390060c0830184613346565b98975050505050505050565b6000806040838503121561392357613922613119565b5b6000613931858286016131a2565b9250506020613942858286016131a2565b9150509250929050565b6000806040838503121561396357613962613119565b5b600061397185828601613679565b925050602083013567ffffffffffffffff8111156139925761399161311e565b5b61399e8582860161357d565b9150509250929050565b6000806000606084860312156139c1576139c0613119565b5b60006139cf86828701613144565b93505060206139e0868287016131a2565b92505060406139f186828701613144565b9150509250925092565b7f427269646765206f7574206e6f7420617661696c61626c6520696e207072652d60008201527f6c61756e63680000000000000000000000000000000000000000000000000000602082015250565b6000613a57602683613229565b9150613a62826139fb565b604082019050919050565b60006020820190508181036000830152613a8681613a4a565b9050919050565b7f496e76616c696420636861696e20494400000000000000000000000000000000600082015250565b6000613ac3601083613229565b9150613ace82613a8d565b602082019050919050565b60006020820190508181036000830152613af281613ab6565b9050919050565b7f44657374696e6174696f6e20636861696e206d7573742064696666657220667260008201527f6f6d20736f7572636520636861696e0000000000000000000000000000000000602082015250565b6000613b55602f83613229565b9150613b6082613af9565b604082019050919050565b60006020820190508181036000830152613b8481613b48565b9050919050565b7f43616e6e6f7420627269646765206f7574207a65726f20746f6b656e73000000600082015250565b6000613bc1601d83613229565b9150613bcc82613b8b565b602082019050919050565b60006020820190508181036000830152613bf081613bb4565b9050919050565b7f496e73756666696369656e742062616c616e6365000000000000000000000000600082015250565b6000613c2d601483613229565b9150613c3882613bf7565b602082019050919050565b60006020820190508181036000830152613c5c81613c20565b9050919050565b6000606082019050613c786000830186613346565b613c856020830185613346565b613c926040830184613346565b949350505050565b7f4e487b7100000000000000000000000000000000000000000000000000000000600052602260045260246000fd5b60006002820490506001821680613ce157607f821691505b602082108103613cf457613cf3613c9a565b5b50919050565b7f4e6f7420617574686f72697a656420746f2072657175657374206f706572617460008201527f696f6e0000000000000000000000000000000000000000000000000000000000602082015250565b6000613d56602383613229565b9150613d6182613cfa565b604082019050919050565b60006020820190508181036000830152613d8581613d49565b9050919050565b7f4f6c64207369676e6572206e6f7420666f756e64000000000000000000000000600082015250565b6000613dc2601483613229565b9150613dcd82613d8c565b602082019050919050565b60006020820190508181036000830152613df181613db5565b9050919050565b7f4e6577207369676e657220616c72656164792065786973747300000000000000600082015250565b6000613e2e601983613229565b9150613e3982613df8565b602082019050919050565b60006020820190508181036000830152613e5d81613e21565b9050919050565b7f43616e6e6f74207265717565737420746f207265706c6163652073656c660000600082015250565b6000613e9a601e83613229565b9150613ea582613e64565b602082019050919050565b60006020820190508181036000830152613ec981613e8d565b9050919050565b7f4e487b7100000000000000000000000000000000000000000000000000000000600052601160045260246000fd5b6000613f0a82613123565b9150613f1583613123565b9250828201905080821115613f2d57613f2c613ed0565b5b92915050565b6000613f3e82613123565b91507fffffffffffffffffffffffffffffffffffffffffffffffffffffffffffffffff8203613f7057613f6f613ed0565b5b600182019050919050565b6000819050919050565b613f96613f9182613123565b613f7b565b82525050565b60008160f81b9050919050565b6000613fb482613f9c565b9050919050565b613fcc613fc782613820565b613fa9565b82525050565b60008160601b9050919050565b6000613fea82613fd2565b9050919050565b6000613ffc82613fdf565b9050919050565b61401461400f82613179565b613ff1565b82525050565b600081905092915050565b600061403082613841565b61403a818561401a565b935061404a81856020860161323a565b80840191505092915050565b60006140628289613f85565b6020820191506140728288613fbb565b6001820191506140828287614003565b6014820191506140928286613f85565b6020820191506140a28285614025565b91506140ae8284613f85565b602082019150819050979650505050505050565b60008190508160005260206000209050919050565b60006020601f8301049050919050565b600082821b905092915050565b6000600883026141247fffffffffffffffffffffffffffffffffffffffffffffffffffffffffffffffff826140e7565b61412e86836140e7565b95508019841693508086168417925050509392505050565b6000819050919050565b600061416b61416661416184613123565b614146565b613123565b9050919050565b6000819050919050565b61418583614150565b61419961419182614172565b8484546140f4565b825550505050565b600090565b6141ae6141a1565b6141b981848461417c565b505050565b5b818110156141dd576141d26000826141a6565b6001810190506141bf565b5050565b601f821115614222576141f3816140c2565b6141fc846140d7565b8101602085101561420b578190505b61421f614217856140d7565b8301826141be565b50505b505050565b600082821c905092915050565b600061424560001984600802614227565b1980831691505092915050565b600061425e8383614234565b9150826002028217905092915050565b61427782613841565b67ffffffffffffffff8111156142905761428f613480565b5b61429a8254613cc9565b6142a58282856141e1565b600060209050601f8311600181146142d857600084156142c6578287015190505b6142d08582614252565b865550614338565b601f1984166142e6866140c2565b60005b8281101561430e578489015182556001820191506020850194506020810190506142e9565b8683101561432b5784890151614327601f891682614234565b8355505b6001600288020188555050505b505050505050565b600060a082019050614355600083018861339d565b6143626020830187613346565b8181036040830152614374818661385d565b90506143836060830185613346565b6143906080830184613346565b9695505050505050565b7f4e6f7420617574686f72697a656420746f2062726964676520696e0000000000600082015250565b60006143d0601b83613229565b91506143db8261439a565b602082019050919050565b600060208201905081810360008301526143ff816143c3565b9050919050565b7f4e487b7100000000000000000000000000000000000000000000000000000000600052603260045260246000fd5b7f42726964676520696e206e6f7420617661696c61626c6520696e207072652d6c60008201527f61756e6368000000000000000000000000000000000000000000000000000000602082015250565b6000614491602583613229565b915061449c82614435565b604082019050919050565b600060208201905081810360008301526144c081614484565b9050919050565b7f43616e6e6f742062726964676520696e207a65726f20746f6b656e7300000000600082015250565b60006144fd601c83613229565b9150614508826144c7565b602082019050919050565b6000602082019050818103600083015261452c816144f0565b9050919050565b7f416d6f756e742065786365656473206272696467652d696e206c696d69740000600082015250565b6000614569601e83613229565b915061457482614533565b602082019050919050565b600060208201905081810360008301526145988161455c565b9050919050565b7f4272696467652d696e20636f6f6c646f776e206e6f74206d6574000000000000600082015250565b60006145d5601a83613229565b91506145e08261459f565b602082019050919050565b60006020820190508181036000830152614604816145c8565b9050919050565b7f4f6e6c79207369676e6572732063616e207375626d6974207369676e6174757260008201527f6573000000000000000000000000000000000000000000000000000000000000602082015250565b6000614667602283613229565b91506146728261460b565b604082019050919050565b600060208201905081810360008301526146968161465a565b9050919050565b7f4f7065726174696f6e20616c7265616479206578656375746564000000000000600082015250565b60006146d3601a83613229565b91506146de8261469d565b602082019050919050565b60006020820190508181036000830152614702816146c6565b9050919050565b7f5369676e617475726520616c7265616479207375626d69747465640000000000600082015250565b600061473f601b83613229565b915061474a82614709565b602082019050919050565b6000602082019050818103600083015261476e81614732565b9050919050565b7f4f7065726174696f6e20646561646c696e652070617373656400000000000000600082015250565b60006147ab601983613229565b91506147b682614775565b602082019050919050565b600060208201905081810360008301526147da8161479e565b9050919050565b600081905092915050565b7f19457468657265756d205369676e6564204d6573736167653a0a333200000000600082015250565b6000614822601c836147e1565b915061482d826147ec565b601c82019050919050565b6000819050919050565b61485361484e8261362e565b614838565b82525050565b600061486482614815565b91506148708284614842565b60208201915081905092915050565b7f5369676e6174757265207369676e6572206d757374206265206d65737361676560008201527f2073656e64657200000000000000000000000000000000000000000000000000602082015250565b60006148db602783613229565b91506148e68261487f565b604082019050919050565b6000602082019050818103600083015261490a816148ce565b9050919050565b7f496e76616c6964207369676e617475726520666f72205570646174655369676e60008201527f6572000000000000000000000000000000000000000000000000000000000000602082015250565b600061496d602283613229565b915061497882614911565b604082019050919050565b6000602082019050818103600083015261499c81614960565b9050919050565b7f5369676e6572206265696e67207265706c616365642063616e6e6f742061707060008201527f726f766500000000000000000000000000000000000000000000000000000000602082015250565b60006149ff602483613229565b9150614a0a826149a3565b604082019050919050565b60006020820190508181036000830152614a2e816149f2565b9050919050565b7f496e76616c6964207369676e6174757265000000000000000000000000000000600082015250565b6000614a6b601183613229565b9150614a7682614a35565b602082019050919050565b60006020820190508181036000830152614a9a81614a5e565b9050919050565b7f456e6f756768207369676e61747572657320616c726561647900000000000000600082015250565b6000614ad7601983613229565b9150614ae282614aa1565b602082019050919050565b60006020820190508181036000830152614b0681614aca565b9050919050565b60008154614b1a81613cc9565b614b24818661401a565b94506001821660008114614b3f5760018114614b5457614b87565b60ff1983168652811515820286019350614b87565b614b5d856140c2565b60005b83811015614b7f57815481890152600182019150602081019050614b60565b838801955050505b50505092915050565b6000614b9c8289614842565b602082019150614bac8288613fbb565b600182019150614bbc8287614003565b601482019150614bcc8286613f85565b602082019150614bdc8285614b0d565b9150614be88284613f85565b602082019150819050979650505050505050565b600081519050614c0b8161312d565b92915050565b600060208284031215614c2757614c26613119565b5b6000614c3584828501614bfc565b91505092915050565b7f556e6b6e6f776e206f7065726174696f6e207479706500000000000000000000600082015250565b6000614c74601683613229565b9150614c7f82614c3e565b602082019050919050565b60006020820190508181036000830152614ca381614c67565b9050919050565b6000606082019050614cbf600083018661339d565b614ccc6020830185613346565b614cd96040830184613346565b949350505050565b7f416c726561647920696e20706f73742d6c61756e6368206d6f64650000000000600082015250565b6000614d17601b83613229565b9150614d2282614ce1565b602082019050919050565b60006020820190508181036000830152614d4681614d0a565b9050919050565b6000604082019050614d62600083018561331c565b614d6f6020830184613346565b9392505050565b7f496e76616c6964206272696467652d696e2063616c6c65720000000000000000600082015250565b6000614dac601883613229565b9150614db782614d76565b602082019050919050565b60006020820190508181036000830152614ddb81614d9f565b9050919050565b7f4272696467652d696e2063616c6c657220616c72656164792073657400000000600082015250565b6000614e18601c83613229565b9150614e2382614de2565b602082019050919050565b60006020820190508181036000830152614e4781614e0b565b9050919050565b7f4d617820616d6f756e74206d7573742062652067726561746572207468616e2060008201527f7a65726f00000000000000000000000000000000000000000000000000000000602082015250565b6000614eaa602483613229565b9150614eb582614e4e565b604082019050919050565b60006020820190508181036000830152614ed981614e9d565b9050919050565b7f436f6f6c646f776e206d7573742062652067726561746572207468616e207a6560008201527f726f000000000000000000000000000000000000000000000000000000000000602082015250565b6000614f3c602283613229565b9150614f4782614ee0565b604082019050919050565b60006020820190508181036000830152614f6b81614f2f565b9050919050565b6000608082019050614f876000830187613638565b614f946020830186613427565b614fa16040830185613638565b614fae6060830184613638565b9594505050505056fea264697066735822122066ebbf4283640ccdaa8f7231a6b9ed61e5529dabd04b1738b81d2d024e73d37664736f6c63430008140033",
  "linkReferences": {},
  "deployedLinkReferences": {}
}