{
  "_format": "hh-sol-artifact-1",
  "contractName": "Vault",
  "sourceName": "contracts/Vault.sol",
  "abi": [
    {
      "inputs": [
        {
          "internalType": "address",
          "name": "_token",
          "type": "address"
        },
        {
          "internalType": "address[4]",
          "name": "_signers",
          "type": "address[4]"
        },
        {
          "internalType": "uint256",
          "name": "_chainId",
          "type": "uint256"
        }
      ],
      "stateMutability": "nonpayable",
      "type": "constructor"
    },
    {
      "inputs": [],
      "name": "ECDSAInvalidSignature",
      "type": "error"
    },
    {
      "inputs": [
        {
          "internalType": "uint256",
          "name": "length",
          "type": "uint256"
        }
      ],
      "name": "ECDSAInvalidSignatureLength",
      "type": "error"
    },
    {
      "inputs": [
        {
          "internalType": "bytes32",
          "name": "s",
          "type": "bytes32"
        }
      ],
      "name": "ECDSAInvalidSignatureS",
      "type": "error"
    },
    {
      "inputs": [],
      "name": "EnforcedPause",
      "type": "error"
    },
    {
      "inputs": [],
      "name": "ExpectedPause",
      "type": "error"
    },
    {
      "inputs": [
        {
          "internalType": "address",
          "name": "owner",
          "type": "address"
        }
      ],
      "name": "OwnableInvalidOwner",
      "type": "error"
    },
    {
      "inputs": [
        {
          "internalType": "address",
          "name": "account",
          "type": "address"
        }
      ],
      "name": "OwnableUnauthorizedAccount",
      "type": "error"
    },
    {
      "inputs": [],
      "name": "ReentrancyGuardReentrantCall",
      "type": "error"
    },
    {
      "anonymous": false,
      "inputs": [
        {
          "indexed": true,
          "internalType": "bytes32",
          "name": "operationId",
          "type": "bytes32"
        },
        {
          "indexed": true,
          "internalType": "address",
          "name": "newCaller",
          "type": "address"
        },
        {
          "indexed": false,
          "internalType": "uint256",
          "name": "timestamp",
          "type": "uint256"
        }
      ],
      "name": "BridgeInCallerUpdated",
      "type": "event"
    },
    {
      "anonymous": false,
      "inputs": [
        {
          "indexed": true,
          "internalType": "bytes32",
          "name": "operationId",
          "type": "bytes32"
        },
        {
          "indexed": false,
          "internalType": "uint256",
          "name": "newMaxAmount",
          "type": "uint256"
        },
        {
          "indexed": false,
          "internalType": "uint256",
          "name": "newCooldown",
          "type": "uint256"
        },
        {
          "indexed": false,
          "internalType": "uint256",
          "name": "timestamp",
          "type": "uint256"
        }
      ],
      "name": "BridgeInLimitsUpdated",
      "type": "event"
    },
    {
      "anonymous": false,
      "inputs": [
        {
          "indexed": true,
          "internalType": "address",
          "name": "to",
          "type": "address"
        },
        {
          "indexed": false,
          "internalType": "uint256",
          "name": "amount",
          "type": "uint256"
        },
        {
          "indexed": true,
          "internalType": "uint256",
          "name": "chainId",
          "type": "uint256"
        },
        {
          "indexed": true,
          "internalType": "bytes32",
          "name": "txId",
          "type": "bytes32"
        },
        {
          "indexed": false,
          "internalType": "uint256",
          "name": "timestamp",
          "type": "uint256"
        },
        {
          "indexed": false,
          "internalType": "uint256",
          "name": "sourceChainId",
          "type": "uint256"
        }
      ],
      "name": "BridgedIn",
      "type": "event"
    },
    {
      "anonymous": false,
      "inputs": [
        {
          "indexed": true,
          "internalType": "address",
          "name": "from",
          "type": "address"
        },
        {
          "indexed": false,
          "internalType": "uint256",
          "name": "amount",
          "type": "uint256"
        },
        {
          "indexed": true,
          "internalType": "address",
          "name": "targetAddress",
          "type": "address"
        },
        {
          "indexed": true,
          "internalType": "uint256",
          "name": "chainId",
          "type": "uint256"
        },
        {
          "indexed": false,
          "internalType": "uint256",
          "name": "timestamp",
          "type": "uint256"
        },
        {
          "indexed": false,
          "internalType": "uint256",
          "name": "destinationChainId",
          "type": "uint256"
        }
      ],
      "name": "BridgedOut",
      "type": "event"
    },
    {
      "anonymous": false,
      "inputs": [
        {
          "indexed": true,
          "internalType": "bytes32",
          "name": "operationId",
          "type": "bytes32"
        },
        {
          "indexed": true,
          "internalType": "enum Vault.OperationType",
          "name": "opType",
          "type": "uint8"
        }
      ],
      "name": "OperationExecuted",
      "type": "event"
    },
    {
      "anonymous": false,
      "inputs": [
        {
          "indexed": true,
          "internalType": "bytes32",
          "name": "operationId",
          "type": "bytes32"
        },
        {
          "indexed": true,
          "internalType": "enum Vault.OperationType",
          "name": "opType",
          "type": "uint8"
        },
        {
          "indexed": true,
          "internalType": "address",
          "name": "requester",
          "type": "address"
        },
        {
          "indexed": false,
          "internalType": "address",
          "name": "target",
          "type": "address"
        },
        {
          "indexed": false,
          "internalType": "uint256",
          "name": "value",
          "type": "uint256"
        },
        {
          "indexed": false,
          "internalType": "bytes",
          "name": "data",
          "type": "bytes"
        },
        {
          "indexed": false,
          "internalType": "uint256",
          "name": "deadline",
          "type": "uint256"
        },
        {
          "indexed": false,
          "internalType": "uint256",
          "name": "timestamp",
          "type": "uint256"
        }
      ],
      "name": "OperationRequested",
      "type": "event"
    },
    {
      "anonymous": false,
      "inputs": [
        {
          "indexed": true,
          "internalType": "address",
          "name": "previousOwner",
          "type": "address"
        },
        {
          "indexed": true,
          "internalType": "address",
          "name": "newOwner",
          "type": "address"
        }
      ],
      "name": "OwnershipTransferred",
      "type": "event"
    },
    {
      "anonymous": false,
      "inputs": [
        {
          "indexed": false,
          "internalType": "address",
          "name": "account",
          "type": "address"
        }
      ],
      "name": "Paused",
      "type": "event"
    },
    {
      "anonymous": false,
      "inputs": [
        {
          "indexed": true,
          "internalType": "bytes32",
          "name": "operationId",
          "type": "bytes32"
        },
        {
          "indexed": true,
          "internalType": "address",
          "name": "signer",
          "type": "address"
        },
        {
          "indexed": false,
          "internalType": "uint256",
          "name": "currentSignatures",
          "type": "uint256"
        },
        {
          "indexed": false,
          "internalType": "uint256",
          "name": "requiredSignatures",
          "type": "uint256"
        },
        {
          "indexed": false,
          "internalType": "uint256",
          "name": "timestamp",
          "type": "uint256"
        }
      ],
      "name": "SignatureSubmitted",
      "type": "event"
    },
    {
      "anonymous": false,
      "inputs": [
        {
          "indexed": true,
          "internalType": "bytes32",
          "name": "operationId",
          "type": "bytes32"
        },
        {
          "indexed": true,
          "internalType": "address",
          "name": "oldSigner",
          "type": "address"
        },
        {
          "indexed": true,
          "internalType": "address",
          "name": "newSigner",
          "type": "address"
        },
        {
          "indexed": false,
          "internalType": "uint256",
          "name": "timestamp",
          "type": "uint256"
        }
      ],
      "name": "SignerUpdated",
      "type": "event"
    },
    {
      "anonymous": false,
      "inputs": [
        {
          "indexed": true,
          "internalType": "address",
          "name": "to",
          "type": "address"
        },
        {
          "indexed": false,
          "internalType": "uint256",
          "name": "amount",
          "type": "uint256"
        },
        {
          "indexed": false,
          "internalType": "uint256",
          "name": "timestamp",
          "type": "uint256"
        }
      ],
      "name": "TokensRelinquished",
      "type": "event"
    },
    {
      "anonymous": false,
      "inputs": [
        {
          "indexed": false,
          "internalType": "address",
          "name": "account",
          "type": "address"
        }
      ],
      "name": "Unpaused",
      "type": "event"
    },
    {
      "inputs": [],
      "name": "DEFAULT_CHAIN_ID",
      "outputs": [
        {
          "internalType": "uint256",
          "name": "",
          "type": "uint256"
        }
      ],
      "stateMutability": "view",
      "type": "function"
    },
    {
      "inputs": [],
      "name": "OPERATION_DEADLINE",
      "outputs": [
        {
          "internalType": "uint256",
          "name": "",
          "type": "uint256"
        }
      ],
      "stateMutability": "view",
      "type": "function"
    },
    {
      "inputs": [],
      "name": "REQUIRED_SIGNATURES",
      "outputs": [
        {
          "internalType": "uint256",
          "name": "",
          "type": "uint256"
        }
      ],
      "stateMutability": "view",
      "type": "function"
    },
    {
      "inputs": [
        {
          "internalType": "address",
          "name": "to",
          "type": "address"
        },
        {
          "internalType": "uint256",
          "name": "amount",
          "type": "uint256"
        },
        {
          "internalType": "uint256",
          "name": "_chainId",
          "type": "uint256"
        },
        {
          "internalType": "bytes32",
          "name": "txId",
          "type": "bytes32"
        }
      ],
      "name": "bridgeIn",
      "outputs": [],
      "stateMutability": "nonpayable",
      "type": "function"
    },
    {
      "inputs": [
        {
          "internalType": "address",
          "name": "to",
          "type": "address"
        },
        {
          "internalType": "uint256",
          "name": "amount",
          "type": "uint256"
        },
        {
          "internalType": "uint256",
          "name": "_chainId",
          "type": "uint256"
        },
        {
          "internalType": "bytes32",
          "name": "txId",
          "type": "bytes32"
        },
        {
          "internalType": "uint256",
          "name": "sourceChainId",
          "type": "uint256"
        }
      ],
      "name": "bridgeIn",
      "outputs": [],
      "stateMutability": "nonpayable",
      "type": "function"
    },
    {
      "inputs": [],
      "name": "bridgeInCaller",
      "outputs": [
        {
          "internalType": "address",
          "name": "",
          "type": "address"
        }
      ],
      "stateMutability": "view",
      "type": "function"
    },
    {
      "inputs": [],
      "name": "bridgeInCooldown",
      "outputs": [
        {
          "internalType": "uint256",
          "name": "",
          "type": "uint256"
        }
      ],
      "stateMutability": "view",
      "type": "function"
    },
    {
      "inputs": [
        {
          "internalType": "uint256",
          "name": "amount",
          "type": "uint256"
        },
        {
          "internalType": "address",
          "name": "targetAddress",
          "type": "address"
        },
        {
          "internalType": "uint256",
          "name": "_chainId",
          "type": "uint256"
        },
        {
          "internalType": "uint256",
          "name": "destinationChainId",
          "type": "uint256"
        }
      ],
      "name": "bridgeOut",
      "outputs": [],
      "stateMutability": "nonpayable",
      "type": "function"
    },
    {
      "inputs": [
        {
          "internalType": "uint256",
          "name": "amount",
          "type": "uint256"
        },
        {
          "internalType": "address",
          "name": "targetAddress",
          "type": "address"
        },
        {
          "internalType": "uint256",
          "name": "_chainId",
          "type": "uint256"
        }
      ],
      "name": "bridgeOut",
      "outputs": [],
      "stateMutability": "nonpayable",
      "type": "function"
    },
    {
      "inputs": [],
      "name": "chainId",
      "outputs": [
        {
          "internalType": "uint256",
          "name": "",
          "type": "uint256"
        }
      ],
      "stateMutability": "view",
      "type": "function"
    },
    {
      "inputs": [],
      "name": "getChainId",
      "outputs": [
        {
          "internalType": "uint256",
          "name": "",
          "type": "uint256"
        }
      ],
      "stateMutability": "view",
      "type": "function"
    },
    {
      "inputs": [
        {
          "internalType": "bytes32",
          "name": "operationId",
          "type": "bytes32"
        }
      ],
      "name": "getOperationHash",
      "outputs": [
        {
          "internalType": "bytes32",
          "name": "",
          "type": "bytes32"
        }
      ],
      "stateMutability": "view",
      "type": "function"
    },
    {
      "inputs": [],
      "name": "getVaultBalance",
      "outputs": [
        {
          "internalType": "uint256",
          "name": "",
          "type": "uint256"
        }
      ],
      "stateMutability": "view",
      "type": "function"
    },
    {
      "inputs": [
        {
          "internalType": "bytes32",
          "name": "operationId",
          "type": "bytes32"
        }
      ],
      "name": "isOperationExpired",
      "outputs": [
        {
          "internalType": "bool",
          "name": "",
          "type": "bool"
        }
      ],
      "stateMutability": "view",
      "type": "function"
    },
    {
      "inputs": [
        {
          "internalType": "address",
          "name": "account",
          "type": "address"
        }
      ],
      "name": "isSigner",
      "outputs": [
        {
          "internalType": "bool",
          "name": "",
          "type": "bool"
        }
      ],
      "stateMutability": "view",
      "type": "function"
    },
    {
      "inputs": [],
      "name": "lastBridgeInTime",
      "outputs": [
        {
          "internalType": "uint256",
          "name": "",
          "type": "uint256"
        }
      ],
      "stateMutability": "view",
      "type": "function"
    },
    {
      "inputs": [],
      "name": "maxBridgeInAmount",
      "outputs": [
        {
          "internalType": "uint256",
          "name": "",
          "type": "uint256"
        }
      ],
      "stateMutability": "view",
      "type": "function"
    },
    {
      "inputs": [],
      "name": "operationCount",
      "outputs": [
        {
          "internalType": "uint256",
          "name": "",
          "type": "uint256"
        }
      ],
      "stateMutability": "view",
      "type": "function"
    },
    {
      "inputs": [
        {
          "internalType": "bytes32",
          "name": "",
          "type": "bytes32"
        }
      ],
      "name": "operations",
      "outputs": [
        {
          "internalType": "enum Vault.OperationType",
          "name": "opType",
          "type": "uint8"
        },
        {
          "internalType": "address",
          "name": "target",
          "type": "address"
        },
        {
          "internalType": "uint256",
          "name": "value",
          "type": "uint256"
        },
        {
          "internalType": "bytes",
          "name": "data",
          "type": "bytes"
        },
        {
          "internalType": "uint256",
          "name": "numSignatures",
          "type": "uint256"
        },
        {
          "internalType": "bool",
          "name": "executed",
          "type": "bool"
        },
        {
          "internalType": "uint256",
          "name": "deadline",
          "type": "uint256"
        }
      ],
      "stateMutability": "view",
      "type": "function"
    },
    {
      "inputs": [],
      "name": "owner",
      "outputs": [
        {
          "internalType": "address",
          "name": "",
          "type": "address"
        }
      ],
      "stateMutability": "view",
      "type": "function"
    },
    {
      "inputs": [],
      "name": "paused",
      "outputs": [
        {
          "internalType": "bool",
          "name": "",
          "type": "bool"
        }
      ],
      "stateMutability": "view",
      "type": "function"
    },
    {
      "inputs": [
        {
          "internalType": "bytes32",
          "name": "",
          "type": "bytes32"
        }
      ],
      "name": "processedTxIds",
      "outputs": [
        {
          "internalType": "bool",
          "name": "",
          "type": "bool"
        }
      ],
      "stateMutability": "view",
      "type": "function"
    },
    {
      "inputs": [],
      "name": "renounceOwnership",
      "outputs": [],
      "stateMutability": "nonpayable",
      "type": "function"
    },
    {
      "inputs": [
        {
          "internalType": "enum Vault.OperationType",
          "name": "opType",
          "type": "uint8"
        },
        {
          "internalType": "address",
          "name": "target",
          "type": "address"
        },
        {
          "internalType": "uint256",
          "name": "value",
          "type": "uint256"
        },
        {
          "internalType": "bytes",
          "name": "data",
          "type": "bytes"
        }
      ],
      "name": "requestOperation",
      "outputs": [
        {
          "internalType": "bytes32",
          "name": "",
          "type": "bytes32"
        }
      ],
      "stateMutability": "nonpayable",
      "type": "function"
    },
    {
      "inputs": [
        {
          "internalType": "uint256",
          "name": "",
          "type": "uint256"
        }
      ],
      "name": "signers",
      "outputs": [
        {
          "internalType": "address",
          "name": "",
          "type": "address"
        }
      ],
      "stateMutability": "view",
      "type": "function"
    },
    {
      "inputs": [
        {
          "internalType": "bytes32",
          "name": "operationId",
          "type": "bytes32"
        },
        {
          "internalType": "bytes",
          "name": "signature",
          "type": "bytes"
        }
      ],
      "name": "submitSignature",
      "outputs": [],
      "stateMutability": "nonpayable",
      "type": "function"
    },
    {
      "inputs": [],
      "name": "token",
      "outputs": [
        {
          "internalType": "contract IERC20",
          "name": "",
          "type": "address"
        }
      ],
      "stateMutability": "view",
      "type": "function"
    },
    {
      "inputs": [
        {
          "internalType": "address",
          "name": "newOwner",
          "type": "address"
        }
      ],
      "name": "transferOwnership",
      "outputs": [],
      "stateMutability": "nonpayable",
      "type": "function"
    },
    {
      "inputs": [
        {
          "internalType": "uint256",
          "name": "",
          "type": "uint256"
        }
      ],
      "name": "txIdBuffer",
      "outputs": [
        {
          "internalType": "bytes32",
          "name": "",
          "type": "bytes32"
        }
      ],
      "stateMutability": "view",
      "type": "function"
    },
    {
      "inputs": [],
      "name": "txIdIndex",
      "outputs": [
        {
          "internalType": "uint256",
          "name": "",
          "type": "uint256"
        }
      ],
      "stateMutability": "view",
      "type": "function"
    }
  ],
  "bytecode": "0x60c060405269021e19e0c9bab2400000600655603c6007553480156200002457600080fd5b50604051620057463803806200574683398181016040528101906200004a9190620006af565b3360008060006101000a81548160ff02191690831515021790555060018081905550600073ffffffffffffffffffffffffffffffffffffffff168173ffffffffffffffffffffffffffffffffffffffff1603620000e15760006040517f1e4fbdf7000000000000000000000000000000000000000000000000000000008152600401620000d891906200071c565b60405180910390fd5b620000f2816200033660201b60201c565b50600073ffffffffffffffffffffffffffffffffffffffff168373ffffffffffffffffffffffffffffffffffffffff160362000165576040517f08c379a00000000000000000000000000000000000000000000000000000000081526004016200015c906200079a565b60405180910390fd5b60005b6004811015620002dc57600073ffffffffffffffffffffffffffffffffffffffff16838260048110620001a0576200019f620007bc565b5b602002015173ffffffffffffffffffffffffffffffffffffffff1603620001fe576040517f08c379a0000000000000000000000000000000000000000000000000000000008152600401620001f5906200083b565b60405180910390fd5b60005b81811015620002c55783816004811062000220576200021f620007bc565b5b602002015173ffffffffffffffffffffffffffffffffffffffff16848360048110620002515762000250620007bc565b5b602002015173ffffffffffffffffffffffffffffffffffffffff1603620002af576040517f08c379a0000000000000000000000000000000000000000000000000000000008152600401620002a690620008ad565b60405180910390fd5b8080620002bc90620008fe565b91505062000201565b508080620002d390620008fe565b91505062000168565b508273ffffffffffffffffffffffffffffffffffffffff1660808173ffffffffffffffffffffffffffffffffffffffff168152505081606f90600462000324929190620003fc565b508060a081815250505050506200094b565b6000600260009054906101000a900473ffffffffffffffffffffffffffffffffffffffff16905081600260006101000a81548173ffffffffffffffffffffffffffffffffffffffff021916908373ffffffffffffffffffffffffffffffffffffffff1602179055508173ffffffffffffffffffffffffffffffffffffffff168173ffffffffffffffffffffffffffffffffffffffff167f8be0079c531659141344cd1fd0a4f28419497f9722a3daafe3b4186f6b6457e060405160405180910390a35050565b82600481019282156200046b579160200282015b828111156200046a5782518260006101000a81548173ffffffffffffffffffffffffffffffffffffffff021916908373ffffffffffffffffffffffffffffffffffffffff1602179055509160200191906001019062000410565b5b5090506200047a91906200047e565b5090565b5b80821115620004995760008160009055506001016200047f565b5090565b6000604051905090565b600080fd5b600073ffffffffffffffffffffffffffffffffffffffff82169050919050565b6000620004d982620004ac565b9050919050565b620004eb81620004cc565b8114620004f757600080fd5b50565b6000815190506200050b81620004e0565b92915050565b600080fd5b6000601f19601f8301169050919050565b7f4e487b7100000000000000000000000000000000000000000000000000000000600052604160045260246000fd5b620005618262000516565b810181811067ffffffffffffffff8211171562000583576200058262000527565b5b80604052505050565b6000620005986200049d565b9050620005a6828262000556565b919050565b600067ffffffffffffffff821115620005c957620005c862000527565b5b602082029050919050565b600080fd5b6000620005f0620005ea84620005ab565b6200058c565b905080602084028301858111156200060d576200060c620005d4565b5b835b818110156200063a5780620006258882620004fa565b8452602084019350506020810190506200060f565b5050509392505050565b600082601f8301126200065c576200065b62000511565b5b60046200066b848285620005d9565b91505092915050565b6000819050919050565b620006898162000674565b81146200069557600080fd5b50565b600081519050620006a9816200067e565b92915050565b600080600060c08486031215620006cb57620006ca620004a7565b5b6000620006db86828701620004fa565b9350506020620006ee8682870162000644565b92505060a0620007018682870162000698565b9150509250925092565b6200071681620004cc565b82525050565b60006020820190506200073360008301846200070b565b92915050565b600082825260208201905092915050565b7f496e76616c696420746f6b656e20616464726573730000000000000000000000600082015250565b60006200078260158362000739565b91506200078f826200074a565b602082019050919050565b60006020820190508181036000830152620007b58162000773565b9050919050565b7f4e487b7100000000000000000000000000000000000000000000000000000000600052603260045260246000fd5b7f496e76616c6964207369676e6572206164647265737300000000000000000000600082015250565b60006200082360168362000739565b91506200083082620007eb565b602082019050919050565b60006020820190508181036000830152620008568162000814565b9050919050565b7f4475706c6963617465207369676e657220616464726573730000000000000000600082015250565b60006200089560188362000739565b9150620008a2826200085d565b602082019050919050565b60006020820190508181036000830152620008c88162000886565b9050919050565b7f4e487b7100000000000000000000000000000000000000000000000000000000600052601160045260246000fd5b60006200090b8262000674565b91507fffffffffffffffffffffffffffffffffffffffffffffffffffffffffffffffff820362000940576200093f620008cf565b5b600182019050919050565b60805160a051614d73620009d3600039600081816105e2015281816109b601528181610c1201528181610fdf015281816114eb0152611ced0152600081816107410152818161081d015281816111ec0152818161138701528181611b6f01528181611d4101528181612a1e01528181612afd01528181612b390152612bfa0152614d736000f3fe608060405234801561001057600080fd5b50600436106101d95760003560e01c8063801a7a8d11610104578063c74f349b116100a2578063ed12e8ef11610071578063ed12e8ef14610550578063f2fde38b1461056e578063f91ea9471461058a578063fc0c546a146105ba576101d9565b8063c74f349b146104c4578063df6158ba146104fa578063e4a1b77714610516578063eca3490014610534576101d9565b806393988770116100de578063939887701461043a5780639a8a05921461046a5780639ac18b1914610488578063bb2da2eb146104a6576101d9565b8063801a7a8d146103d05780638da5cb5b14610400578063914889c01461041e576101d9565b806343ea19961161017c578063625cf3661161014b578063625cf3661461034a5780636a3871d91461037a578063715018a6146103965780637df73e27146103a0576101d9565b806343ea1996146102d25780635834e9de146102f05780635c975abb1461030e578063603ad8ad1461032c576101d9565b80632079fb9a116101b85780632079fb9a1461023657806323d3c142146102665780633408e470146102845780634379caa5146102a2576101d9565b8062dc525e146101de57806319fd6f46146101fa5780631e22627514610218575b600080fd5b6101f860048036038101906101f39190612e47565b6105d8565b005b61020261096a565b60405161020f9190612ebd565b60405180910390f35b610220610970565b60405161022d9190612ebd565b60405180910390f35b610250600480360381019061024b9190612ed8565b610976565b60405161025d9190612f14565b60405180910390f35b61026e6109ac565b60405161027b9190612ebd565b60405180910390f35b61028c6109b2565b6040516102999190612ebd565b60405180910390f35b6102bc60048036038101906102b79190612f65565b6109da565b6040516102c99190612fad565b60405180910390f35b6102da6109fa565b6040516102e79190612ebd565b60405180910390f35b6102f86109ff565b6040516103059190612ebd565b60405180910390f35b610316610a05565b6040516103239190612fad565b60405180910390f35b610334610a1b565b6040516103419190612ebd565b60405180910390f35b610364600480360381019061035f9190613133565b610a21565b60405161037191906131c5565b60405180910390f35b610394600480360381019061038f91906131e0565b610da7565b005b61039e610e4b565b005b6103ba60048036038101906103b59190613247565b610e5f565b6040516103c79190612fad565b60405180910390f35b6103ea60048036038101906103e59190612ed8565b610f00565b6040516103f791906131c5565b60405180910390f35b610408610f1b565b6040516104159190612f14565b60405180910390f35b61043860048036038101906104339190613274565b610f45565b005b610454600480360381019061044f9190612f65565b6114c7565b6040516104619190612fad565b60405180910390f35b6104726114e9565b60405161047f9190612ebd565b60405180910390f35b61049061150d565b60405161049d9190612ebd565b60405180910390f35b6104ae611512565b6040516104bb9190612ebd565b60405180910390f35b6104de60048036038101906104d99190612f65565b611519565b6040516104f197969594939291906133e5565b60405180910390f35b610514600480360381019061050f919061345b565b61161d565b005b61051e611b2b565b60405161052b9190612f14565b60405180910390f35b61054e600480360381019061054991906134b7565b611b51565b005b610558611b6b565b6040516105659190612ebd565b60405180910390f35b61058860048036038101906105839190613247565b611c0c565b005b6105a4600480360381019061059f9190612f65565b611c92565b6040516105b191906131c5565b60405180910390f35b6105c2611d3f565b6040516105cf9190613569565b60405180910390f35b6105e0611d63565b7f00000000000000000000000000000000000000000000000000000000000000008214610642576040517f08c379a0000000000000000000000000000000000000000000000000000000008152600401610639906135e1565b60405180910390fd5b6000811461068d5781810361068c576040517f08c379a000000000000000000000000000000000000000000000000000000000815260040161068390613673565b60405180910390fd5b5b600084116106d0576040517f08c379a00000000000000000000000000000000000000000000000000000000081526004016106c7906136df565b60405180910390fd5b600073ffffffffffffffffffffffffffffffffffffffff168373ffffffffffffffffffffffffffffffffffffffff160361073f576040517f08c379a00000000000000000000000000000000000000000000000000000000081526004016107369061374b565b60405180910390fd5b7f000000000000000000000000000000000000000000000000000000000000000073ffffffffffffffffffffffffffffffffffffffff166370a08231336040518263ffffffff1660e01b81526004016107989190612f14565b602060405180830381865afa1580156107b5573d6000803e3d6000fd5b505050506040513d601f19601f820116820180604052508101906107d99190613780565b84111561081b576040517f08c379a0000000000000000000000000000000000000000000000000000000008152600401610812906137f9565b60405180910390fd5b7f000000000000000000000000000000000000000000000000000000000000000073ffffffffffffffffffffffffffffffffffffffff166323b872dd3330876040518463ffffffff1660e01b815260040161087893929190613819565b6020604051808303816000875af1158015610897573d6000803e3d6000fd5b505050506040513d601f19601f820116820180604052508101906108bb919061387c565b6108fa576040517f08c379a00000000000000000000000000000000000000000000000000000000081526004016108f1906138f5565b60405180910390fd5b818373ffffffffffffffffffffffffffffffffffffffff163373ffffffffffffffffffffffffffffffffffffffff167f69196696c42c89516e6aa6bd818ddd5aee741919a0f7ea69b066ed152784635287428660405161095c93929190613915565b60405180910390a450505050565b60065481565b606e5481565b606f816004811061098657600080fd5b016000915054906101000a900473ffffffffffffffffffffffffffffffffffffffff1681565b60045481565b60007f0000000000000000000000000000000000000000000000000000000000000000905090565b60096020528060005260406000206000915054906101000a900460ff1681565b600081565b60085481565b60008060009054906101000a900460ff16905090565b60075481565b6000610a2c33610e5f565b80610a6957503373ffffffffffffffffffffffffffffffffffffffff16610a51610f1b565b73ffffffffffffffffffffffffffffffffffffffff16145b610aa8576040517f08c379a0000000000000000000000000000000000000000000000000000000008152600401610a9f906139be565b60405180910390fd5b60046005811115610abc57610abb6132ef565b5b856005811115610acf57610ace6132ef565b5b03610be05760008490506000849050610ae782610e5f565b610b26576040517f08c379a0000000000000000000000000000000000000000000000000000000008152600401610b1d90613a2a565b60405180910390fd5b610b2f81610e5f565b15610b6f576040517f08c379a0000000000000000000000000000000000000000000000000000000008152600401610b6690613a96565b60405180910390fd5b3373ffffffffffffffffffffffffffffffffffffffff168273ffffffffffffffffffffffffffffffffffffffff1603610bdd576040517f08c379a0000000000000000000000000000000000000000000000000000000008152600401610bd490613b02565b60405180910390fd5b50505b60006203f48042610bf19190613b51565b9050600060046000815480929190610c0890613b85565b91905055878787877f0000000000000000000000000000000000000000000000000000000000000000604051602001610c4696959493929190613ca8565b6040516020818303038152906040528051906020012090506000600360008381526020019081526020016000209050878160000160006101000a81548160ff02191690836005811115610c9c57610c9b6132ef565b5b0217905550868160000160016101000a81548173ffffffffffffffffffffffffffffffffffffffff021916908373ffffffffffffffffffffffffffffffffffffffff16021790555085816001018190555084816002019081610cfe9190613f16565b5060008160040160006101000a81548160ff021916908315150217905550600081600301819055508281600501819055503373ffffffffffffffffffffffffffffffffffffffff16886005811115610d5957610d586132ef565b5b837fa011c66382012750126c5fd78e1016566e3256c04d1cc9cc2045f81a5f5fa98c8a8a8a8942604051610d91959493929190613fe8565b60405180910390a4819350505050949350505050565b600560009054906101000a900473ffffffffffffffffffffffffffffffffffffffff1673ffffffffffffffffffffffffffffffffffffffff163373ffffffffffffffffffffffffffffffffffffffff1614610e37576040517f08c379a0000000000000000000000000000000000000000000000000000000008152600401610e2e9061408e565b60405180910390fd5b610e45848484846000610f45565b50505050565b610e53611da4565b610e5d6000611e2b565b565b600080600090505b6004811015610ef5578273ffffffffffffffffffffffffffffffffffffffff16606f8260048110610e9b57610e9a6140ae565b5b0160009054906101000a900473ffffffffffffffffffffffffffffffffffffffff1673ffffffffffffffffffffffffffffffffffffffff1603610ee2576001915050610efb565b8080610eed90613b85565b915050610e67565b50600090505b919050565b600a8160648110610f1057600080fd5b016000915090505481565b6000600260009054906101000a900473ffffffffffffffffffffffffffffffffffffffff16905090565b600560009054906101000a900473ffffffffffffffffffffffffffffffffffffffff1673ffffffffffffffffffffffffffffffffffffffff163373ffffffffffffffffffffffffffffffffffffffff1614610fd5576040517f08c379a0000000000000000000000000000000000000000000000000000000008152600401610fcc9061408e565b60405180910390fd5b610fdd611ef1565b7f0000000000000000000000000000000000000000000000000000000000000000831461103f576040517f08c379a0000000000000000000000000000000000000000000000000000000008152600401611036906135e1565b60405180910390fd5b60008411611082576040517f08c379a000000000000000000000000000000000000000000000000000000000815260040161107990614129565b60405180910390fd5b600073ffffffffffffffffffffffffffffffffffffffff168573ffffffffffffffffffffffffffffffffffffffff16036110f1576040517f08c379a00000000000000000000000000000000000000000000000000000000081526004016110e890614195565b60405180910390fd5b600654841115611136576040517f08c379a000000000000000000000000000000000000000000000000000000000815260040161112d90614201565b60405180910390fd5b6007546008546111469190613b51565b421015611188576040517f08c379a000000000000000000000000000000000000000000000000000000000815260040161117f9061426d565b60405180910390fd5b6009600083815260200190815260200160002060009054906101000a900460ff16156111e9576040517f08c379a00000000000000000000000000000000000000000000000000000000081526004016111e0906142d9565b60405180910390fd5b837f000000000000000000000000000000000000000000000000000000000000000073ffffffffffffffffffffffffffffffffffffffff166370a08231306040518263ffffffff1660e01b81526004016112439190612f14565b602060405180830381865afa158015611260573d6000803e3d6000fd5b505050506040513d601f19601f820116820180604052508101906112849190613780565b10156112c5576040517f08c379a00000000000000000000000000000000000000000000000000000000081526004016112bc90614345565b60405180910390fd5b60006064606e546112d69190614394565b90506000600a82606481106112ee576112ed6140ae565b5b015490506000801b8114611320576009600082815260200190815260200160002060006101000a81549060ff02191690555b83600a8360648110611335576113346140ae565b5b018190555060016009600086815260200190815260200160002060006101000a81548160ff021916908315150217905550606e600081548092919061137990613b85565b9190505550426008819055507f000000000000000000000000000000000000000000000000000000000000000073ffffffffffffffffffffffffffffffffffffffff1663a9059cbb88886040518363ffffffff1660e01b81526004016113e09291906143c5565b6020604051808303816000875af11580156113ff573d6000803e3d6000fd5b505050506040513d601f19601f82011682018060405250810190611423919061387c565b611462576040517f08c379a0000000000000000000000000000000000000000000000000000000008152600401611459906138f5565b60405180910390fd5b83858873ffffffffffffffffffffffffffffffffffffffff167f5298f0a33ce819a7845027bb163b3021aa9a854f6f76bfb0020ffe1dfbfceb2f8942886040516114ae93929190613915565b60405180910390a450506114c0611f37565b5050505050565b6000600360008381526020019081526020016000206005015442119050919050565b7f000000000000000000000000000000000000000000000000000000000000000081565b600381565b6203f48081565b60036020528060005260406000206000915090508060000160009054906101000a900460ff16908060000160019054906101000a900473ffffffffffffffffffffffffffffffffffffffff169080600101549080600201805461157b90613d43565b80601f01602080910402602001604051908101604052809291908181526020018280546115a790613d43565b80156115f45780601f106115c9576101008083540402835291602001916115f4565b820191906000526020600020905b8154815290600101906020018083116115d757829003601f168201915b5050505050908060030154908060040160009054906101000a900460ff16908060050154905087565b61162633610e5f565b611665576040517f08c379a000000000000000000000000000000000000000000000000000000000815260040161165c90614460565b60405180910390fd5b60006003600084815260200190815260200160002090508060040160009054906101000a900460ff16156116ce576040517f08c379a00000000000000000000000000000000000000000000000000000000081526004016116c5906144cc565b60405180910390fd5b8060060160003373ffffffffffffffffffffffffffffffffffffffff1673ffffffffffffffffffffffffffffffffffffffff16815260200190815260200160002060009054906101000a900460ff161561175d576040517f08c379a000000000000000000000000000000000000000000000000000000000815260040161175490614538565b60405180910390fd5b80600501544211156117a4576040517f08c379a000000000000000000000000000000000000000000000000000000000815260040161179b906145a4565b60405180910390fd5b60006117af84611c92565b90506000816040516020016117c4919061463c565b60405160208183030381529060405280519060200120905060006117e88286611f40565b90503373ffffffffffffffffffffffffffffffffffffffff168173ffffffffffffffffffffffffffffffffffffffff1614611858576040517f08c379a000000000000000000000000000000000000000000000000000000000815260040161184f906146d4565b60405180910390fd5b6004600581111561186c5761186b6132ef565b5b8460000160009054906101000a900460ff1660058111156118905761188f6132ef565b5b036119b15761189e81610e5f565b806118db57506118ac610f1b565b73ffffffffffffffffffffffffffffffffffffffff168173ffffffffffffffffffffffffffffffffffffffff16145b61191a576040517f08c379a000000000000000000000000000000000000000000000000000000000815260040161191190614766565b60405180910390fd5b8360000160019054906101000a900473ffffffffffffffffffffffffffffffffffffffff1673ffffffffffffffffffffffffffffffffffffffff168173ffffffffffffffffffffffffffffffffffffffff16036119ac576040517f08c379a00000000000000000000000000000000000000000000000000000000081526004016119a3906147f8565b60405180910390fd5b6119fa565b6119ba81610e5f565b6119f9576040517f08c379a00000000000000000000000000000000000000000000000000000000081526004016119f090614864565b60405180910390fd5b5b6003846003015410611a41576040517f08c379a0000000000000000000000000000000000000000000000000000000008152600401611a38906148d0565b60405180910390fd5b60018460060160008373ffffffffffffffffffffffffffffffffffffffff1673ffffffffffffffffffffffffffffffffffffffff16815260200190815260200160002060006101000a81548160ff021916908315150217905550836003016000815480929190611ab090613b85565b91905055508073ffffffffffffffffffffffffffffffffffffffff16867f08fd08172fcea5acf5a0736b281cd7a25f510f6192abd379b036cae0f064d8548660030154600342604051611b0593929190613915565b60405180910390a36003846003015403611b2357611b2286611f6c565b5b505050505050565b600560009054906101000a900473ffffffffffffffffffffffffffffffffffffffff1681565b611b59611d63565b611b6683838360006105d8565b505050565b60007f000000000000000000000000000000000000000000000000000000000000000073ffffffffffffffffffffffffffffffffffffffff166370a08231306040518263ffffffff1660e01b8152600401611bc69190612f14565b602060405180830381865afa158015611be3573d6000803e3d6000fd5b505050506040513d601f19601f82011682018060405250810190611c079190613780565b905090565b611c14611da4565b600073ffffffffffffffffffffffffffffffffffffffff168173ffffffffffffffffffffffffffffffffffffffff1603611c865760006040517f1e4fbdf7000000000000000000000000000000000000000000000000000000008152600401611c7d9190612f14565b60405180910390fd5b611c8f81611e2b565b50565b600080600360008481526020019081526020016000209050828160000160009054906101000a900460ff168260000160019054906101000a900473ffffffffffffffffffffffffffffffffffffffff168360010154846002017f0000000000000000000000000000000000000000000000000000000000000000604051602001611d2196959493929190614973565b60405160208183030381529060405280519060200120915050919050565b7f000000000000000000000000000000000000000000000000000000000000000081565b611d6b610a05565b15611da2576040517fd93c066500000000000000000000000000000000000000000000000000000000815260040160405180910390fd5b565b611dac612349565b73ffffffffffffffffffffffffffffffffffffffff16611dca610f1b565b73ffffffffffffffffffffffffffffffffffffffff1614611e2957611ded612349565b6040517f118cdaa7000000000000000000000000000000000000000000000000000000008152600401611e209190612f14565b60405180910390fd5b565b6000600260009054906101000a900473ffffffffffffffffffffffffffffffffffffffff16905081600260006101000a81548173ffffffffffffffffffffffffffffffffffffffff021916908373ffffffffffffffffffffffffffffffffffffffff1602179055508173ffffffffffffffffffffffffffffffffffffffff168173ffffffffffffffffffffffffffffffffffffffff167f8be0079c531659141344cd1fd0a4f28419497f9722a3daafe3b4186f6b6457e060405160405180910390a35050565b600260015403611f2d576040517f3ee5aeb500000000000000000000000000000000000000000000000000000000815260040160405180910390fd5b6002600181905550565b60018081905550565b600080600080611f508686612351565b925092509250611f6082826123ad565b82935050505092915050565b611f74611ef1565b60006003600083815260200190815260200160002090508060040160009054906101000a900460ff1615611fdd576040517f08c379a0000000000000000000000000000000000000000000000000000000008152600401611fd4906144cc565b60405180910390fd5b60018160040160006101000a81548160ff0219169083151502179055506004600581111561200e5761200d6132ef565b5b8160000160009054906101000a900460ff166005811115612032576120316132ef565b5b0361206f5761206a828260000160019054906101000a900473ffffffffffffffffffffffffffffffffffffffff168360010154612511565b6122ec565b60006005811115612083576120826132ef565b5b8160000160009054906101000a900460ff1660058111156120a7576120a66132ef565b5b036120b9576120b46126ee565b6122eb565b600160058111156120cd576120cc6132ef565b5b8160000160009054906101000a900460ff1660058111156120f1576120f06132ef565b5b03612103576120fe612750565b6122ea565b60026005811115612117576121166132ef565b5b8160000160009054906101000a900460ff16600581111561213b5761213a6132ef565b5b036121735761216e828260000160019054906101000a900473ffffffffffffffffffffffffffffffffffffffff166127b2565b6122e9565b60036005811115612187576121866132ef565b5b8160000160009054906101000a900460ff1660058111156121ab576121aa6132ef565b5b036122635761225e8282600101548360020180546121c890613d43565b80601f01602080910402602001604051908101604052809291908181526020018280546121f490613d43565b80156122415780601f1061221657610100808354040283529160200191612241565b820191906000526020600020905b81548152906001019060200180831161222457829003601f168201915b50505050508060200190518101906122599190613780565b612945565b6122e8565b600580811115612276576122756132ef565b5b8160000160009054906101000a900460ff16600581111561229a576122996132ef565b5b036122ac576122a7612a1a565b6122e7565b6040517f08c379a00000000000000000000000000000000000000000000000000000000081526004016122de90614a2b565b60405180910390fd5b5b5b5b5b5b8060000160009054906101000a900460ff1660058111156123105761230f6132ef565b5b827f289dad4ed16f1a5875c2cb2c881afd38eeeae5b1c1aee0f8dce6d6593a2ce0eb60405160405180910390a350612346611f37565b50565b600033905090565b600080600060418451036123965760008060006020870151925060408701519150606087015160001a905061238888828585612c6b565b9550955095505050506123a6565b60006002855160001b9250925092505b9250925092565b600060038111156123c1576123c06132ef565b5b8260038111156123d4576123d36132ef565b5b031561250d57600160038111156123ee576123ed6132ef565b5b826003811115612401576124006132ef565b5b03612438576040517ff645eedf00000000000000000000000000000000000000000000000000000000815260040160405180910390fd5b6002600381111561244c5761244b6132ef565b5b82600381111561245f5761245e6132ef565b5b036124a4578060001c6040517ffce698f700000000000000000000000000000000000000000000000000000000815260040161249b9190612ebd565b60405180910390fd5b6003808111156124b7576124b66132ef565b5b8260038111156124ca576124c96132ef565b5b0361250c57806040517fd78bce0c00000000000000000000000000000000000000000000000000000000815260040161250391906131c5565b60405180910390fd5b5b5050565b61251a82610e5f565b612559576040517f08c379a000000000000000000000000000000000000000000000000000000000815260040161255090613a2a565b60405180910390fd5b61256281610e5f565b156125a2576040517f08c379a000000000000000000000000000000000000000000000000000000000815260040161259990613a96565b60405180910390fd5b60005b6004811015612682578273ffffffffffffffffffffffffffffffffffffffff16606f82600481106125d9576125d86140ae565b5b0160009054906101000a900473ffffffffffffffffffffffffffffffffffffffff1673ffffffffffffffffffffffffffffffffffffffff160361266f5781606f826004811061262b5761262a6140ae565b5b0160006101000a81548173ffffffffffffffffffffffffffffffffffffffff021916908373ffffffffffffffffffffffffffffffffffffffff160217905550612682565b808061267a90613b85565b9150506125a5565b508073ffffffffffffffffffffffffffffffffffffffff168273ffffffffffffffffffffffffffffffffffffffff16847f4c9177a34b5732173b48f1018fc5bdebb32efb1b22916b5e2a8054f61cd8300c426040516126e19190612ebd565b60405180910390a4505050565b6126f6611d63565b60016000806101000a81548160ff0219169083151502179055507f62e78cea01bee320cd4e420270b5ea74000d11b0c9f74754ebdbfc544b05a258612739612349565b6040516127469190612f14565b60405180910390a1565b612758612d5f565b60008060006101000a81548160ff0219169083151502179055507f5db9ee0a495bf2e6ff9c91a7834c1ba4fdd244a5e8aa4e537bd38aeae4b073aa61279b612349565b6040516127a89190612f14565b60405180910390a1565b600073ffffffffffffffffffffffffffffffffffffffff168173ffffffffffffffffffffffffffffffffffffffff1603612821576040517f08c379a000000000000000000000000000000000000000000000000000000000815260040161281890614a97565b60405180910390fd5b600560009054906101000a900473ffffffffffffffffffffffffffffffffffffffff1673ffffffffffffffffffffffffffffffffffffffff168173ffffffffffffffffffffffffffffffffffffffff16036128b1576040517f08c379a00000000000000000000000000000000000000000000000000000000081526004016128a890614b03565b60405180910390fd5b80600560006101000a81548173ffffffffffffffffffffffffffffffffffffffff021916908373ffffffffffffffffffffffffffffffffffffffff1602179055508073ffffffffffffffffffffffffffffffffffffffff16827f69c7befbb465fe1301816b9d77797de9b2c739a48777e21e84f5c248fe7d30bc426040516129399190612ebd565b60405180910390a35050565b60008211612988576040517f08c379a000000000000000000000000000000000000000000000000000000000815260040161297f90614b95565b60405180910390fd5b600081116129cb576040517f08c379a00000000000000000000000000000000000000000000000000000000081526004016129c290614c27565b60405180910390fd5b8160068190555080600781905550827f7b95cdf85cd2effb0753e33c5d171ef3ef06f7fedf995a97fd715c4a3d27a382838342604051612a0d93929190613915565b60405180910390a2505050565b60007f000000000000000000000000000000000000000000000000000000000000000073ffffffffffffffffffffffffffffffffffffffff166370a08231306040518263ffffffff1660e01b8152600401612a759190612f14565b602060405180830381865afa158015612a92573d6000803e3d6000fd5b505050506040513d601f19601f82011682018060405250810190612ab69190613780565b905060008111612afb576040517f08c379a0000000000000000000000000000000000000000000000000000000008152600401612af290614c93565b60405180910390fd5b7f000000000000000000000000000000000000000000000000000000000000000073ffffffffffffffffffffffffffffffffffffffff1663a9059cbb7f0000000000000000000000000000000000000000000000000000000000000000836040518363ffffffff1660e01b8152600401612b769291906143c5565b6020604051808303816000875af1158015612b95573d6000803e3d6000fd5b505050506040513d601f19601f82011682018060405250810190612bb9919061387c565b612bf8576040517f08c379a0000000000000000000000000000000000000000000000000000000008152600401612bef906138f5565b60405180910390fd5b7f000000000000000000000000000000000000000000000000000000000000000073ffffffffffffffffffffffffffffffffffffffff167fa3f3d66c364602c2a0bb64012eeff0d5da45050ead3e96170c89e9db2fe71d708242604051612c60929190614cb3565b60405180910390a250565b60008060007f7fffffffffffffffffffffffffffffff5d576e7357a4501ddfe92f46681b20a08460001c1115612cab576000600385925092509250612d55565b600060018888888860405160008152602001604052604051612cd09493929190614cf8565b6020604051602081039080840390855afa158015612cf2573d6000803e3d6000fd5b505050602060405103519050600073ffffffffffffffffffffffffffffffffffffffff168173ffffffffffffffffffffffffffffffffffffffff1603612d4657600060016000801b93509350935050612d55565b8060008060001b935093509350505b9450945094915050565b612d67610a05565b612d9d576040517f8dfc202b00000000000000000000000000000000000000000000000000000000815260040160405180910390fd5b565b6000604051905090565b600080fd5b600080fd5b6000819050919050565b612dc681612db3565b8114612dd157600080fd5b50565b600081359050612de381612dbd565b92915050565b600073ffffffffffffffffffffffffffffffffffffffff82169050919050565b6000612e1482612de9565b9050919050565b612e2481612e09565b8114612e2f57600080fd5b50565b600081359050612e4181612e1b565b92915050565b60008060008060808587031215612e6157612e60612da9565b5b6000612e6f87828801612dd4565b9450506020612e8087828801612e32565b9350506040612e9187828801612dd4565b9250506060612ea287828801612dd4565b91505092959194509250565b612eb781612db3565b82525050565b6000602082019050612ed26000830184612eae565b92915050565b600060208284031215612eee57612eed612da9565b5b6000612efc84828501612dd4565b91505092915050565b612f0e81612e09565b82525050565b6000602082019050612f296000830184612f05565b92915050565b6000819050919050565b612f4281612f2f565b8114612f4d57600080fd5b50565b600081359050612f5f81612f39565b92915050565b600060208284031215612f7b57612f7a612da9565b5b6000612f8984828501612f50565b91505092915050565b60008115159050919050565b612fa781612f92565b82525050565b6000602082019050612fc26000830184612f9e565b92915050565b60068110612fd557600080fd5b50565b600081359050612fe781612fc8565b92915050565b600080fd5b600080fd5b6000601f19601f8301169050919050565b7f4e487b7100000000000000000000000000000000000000000000000000000000600052604160045260246000fd5b61304082612ff7565b810181811067ffffffffffffffff8211171561305f5761305e613008565b5b80604052505050565b6000613072612d9f565b905061307e8282613037565b919050565b600067ffffffffffffffff82111561309e5761309d613008565b5b6130a782612ff7565b9050602081019050919050565b82818337600083830152505050565b60006130d66130d184613083565b613068565b9050828152602081018484840111156130f2576130f1612ff2565b5b6130fd8482856130b4565b509392505050565b600082601f83011261311a57613119612fed565b5b813561312a8482602086016130c3565b91505092915050565b6000806000806080858703121561314d5761314c612da9565b5b600061315b87828801612fd8565b945050602061316c87828801612e32565b935050604061317d87828801612dd4565b925050606085013567ffffffffffffffff81111561319e5761319d612dae565b5b6131aa87828801613105565b91505092959194509250565b6131bf81612f2f565b82525050565b60006020820190506131da60008301846131b6565b92915050565b600080600080608085870312156131fa576131f9612da9565b5b600061320887828801612e32565b945050602061321987828801612dd4565b935050604061322a87828801612dd4565b925050606061323b87828801612f50565b91505092959194509250565b60006020828403121561325d5761325c612da9565b5b600061326b84828501612e32565b91505092915050565b600080600080600060a086880312156132905761328f612da9565b5b600061329e88828901612e32565b95505060206132af88828901612dd4565b94505060406132c088828901612dd4565b93505060606132d188828901612f50565b92505060806132e288828901612dd4565b9150509295509295909350565b7f4e487b7100000000000000000000000000000000000000000000000000000000600052602160045260246000fd5b6006811061332f5761332e6132ef565b5b50565b60008190506133408261331e565b919050565b600061335082613332565b9050919050565b61336081613345565b82525050565b600081519050919050565b600082825260208201905092915050565b60005b838110156133a0578082015181840152602081019050613385565b60008484015250505050565b60006133b782613366565b6133c18185613371565b93506133d1818560208601613382565b6133da81612ff7565b840191505092915050565b600060e0820190506133fa600083018a613357565b6134076020830189612f05565b6134146040830188612eae565b818103606083015261342681876133ac565b90506134356080830186612eae565b61344260a0830185612f9e565b61344f60c0830184612eae565b98975050505050505050565b6000806040838503121561347257613471612da9565b5b600061348085828601612f50565b925050602083013567ffffffffffffffff8111156134a1576134a0612dae565b5b6134ad85828601613105565b9150509250929050565b6000806000606084860312156134d0576134cf612da9565b5b60006134de86828701612dd4565b93505060206134ef86828701612e32565b925050604061350086828701612dd4565b9150509250925092565b6000819050919050565b600061352f61352a61352584612de9565b61350a565b612de9565b9050919050565b600061354182613514565b9050919050565b600061355382613536565b9050919050565b61356381613548565b82525050565b600060208201905061357e600083018461355a565b92915050565b600082825260208201905092915050565b7f496e76616c696420636861696e20494400000000000000000000000000000000600082015250565b60006135cb601083613584565b91506135d682613595565b602082019050919050565b600060208201905081810360008301526135fa816135be565b9050919050565b7f44657374696e6174696f6e20636861696e206d7573742064696666657220667260008201527f6f6d20736f7572636520636861696e0000000000000000000000000000000000602082015250565b600061365d602f83613584565b915061366882613601565b604082019050919050565b6000602082019050818103600083015261368c81613650565b9050919050565b7f43616e6e6f7420627269646765206f7574207a65726f20746f6b656e73000000600082015250565b60006136c9601d83613584565b91506136d482613693565b602082019050919050565b600060208201905081810360008301526136f8816136bc565b9050919050565b7f496e76616c696420746172676574206164647265737300000000000000000000600082015250565b6000613735601683613584565b9150613740826136ff565b602082019050919050565b6000602082019050818103600083015261376481613728565b9050919050565b60008151905061377a81612dbd565b92915050565b60006020828403121561379657613795612da9565b5b60006137a48482850161376b565b91505092915050565b7f496e73756666696369656e742062616c616e6365000000000000000000000000600082015250565b60006137e3601483613584565b91506137ee826137ad565b602082019050919050565b60006020820190508181036000830152613812816137d6565b9050919050565b600060608201905061382e6000830186612f05565b61383b6020830185612f05565b6138486040830184612eae565b949350505050565b61385981612f92565b811461386457600080fd5b50565b60008151905061387681613850565b92915050565b60006020828403121561389257613891612da9565b5b60006138a084828501613867565b91505092915050565b7f546f6b656e207472616e73666572206661696c65640000000000000000000000600082015250565b60006138df601583613584565b91506138ea826138a9565b602082019050919050565b6000602082019050818103600083015261390e816138d2565b9050919050565b600060608201905061392a6000830186612eae565b6139376020830185612eae565b6139446040830184612eae565b949350505050565b7f4e6f7420617574686f72697a656420746f2072657175657374206f706572617460008201527f696f6e0000000000000000000000000000000000000000000000000000000000602082015250565b60006139a8602383613584565b91506139b38261394c565b604082019050919050565b600060208201905081810360008301526139d78161399b565b9050919050565b7f4f6c64207369676e6572206e6f7420666f756e64000000000000000000000000600082015250565b6000613a14601483613584565b9150613a1f826139de565b602082019050919050565b60006020820190508181036000830152613a4381613a07565b9050919050565b7f4e6577207369676e657220616c72656164792065786973747300000000000000600082015250565b6000613a80601983613584565b9150613a8b82613a4a565b602082019050919050565b60006020820190508181036000830152613aaf81613a73565b9050919050565b7f43616e6e6f74207265717565737420746f207265706c6163652073656c660000600082015250565b6000613aec601e83613584565b9150613af782613ab6565b602082019050919050565b60006020820190508181036000830152613b1b81613adf565b9050919050565b7f4e487b7100000000000000000000000000000000000000000000000000000000600052601160045260246000fd5b6000613b5c82612db3565b9150613b6783612db3565b9250828201905080821115613b7f57613b7e613b22565b5b92915050565b6000613b9082612db3565b91507fffffffffffffffffffffffffffffffffffffffffffffffffffffffffffffffff8203613bc257613bc1613b22565b5b600182019050919050565b6000819050919050565b613be8613be382612db3565b613bcd565b82525050565b60008160f81b9050919050565b6000613c0682613bee565b9050919050565b613c1e613c1982613345565b613bfb565b82525050565b60008160601b9050919050565b6000613c3c82613c24565b9050919050565b6000613c4e82613c31565b9050919050565b613c66613c6182612e09565b613c43565b82525050565b600081905092915050565b6000613c8282613366565b613c8c8185613c6c565b9350613c9c818560208601613382565b80840191505092915050565b6000613cb48289613bd7565b602082019150613cc48288613c0d565b600182019150613cd48287613c55565b601482019150613ce48286613bd7565b602082019150613cf48285613c77565b9150613d008284613bd7565b602082019150819050979650505050505050565b7f4e487b7100000000000000000000000000000000000000000000000000000000600052602260045260246000fd5b60006002820490506001821680613d5b57607f821691505b602082108103613d6e57613d6d613d14565b5b50919050565b60008190508160005260206000209050919050565b60006020601f8301049050919050565b600082821b905092915050565b600060088302613dd67fffffffffffffffffffffffffffffffffffffffffffffffffffffffffffffffff82613d99565b613de08683613d99565b95508019841693508086168417925050509392505050565b6000613e13613e0e613e0984612db3565b61350a565b612db3565b9050919050565b6000819050919050565b613e2d83613df8565b613e41613e3982613e1a565b848454613da6565b825550505050565b600090565b613e56613e49565b613e61818484613e24565b505050565b5b81811015613e8557613e7a600082613e4e565b600181019050613e67565b5050565b601f821115613eca57613e9b81613d74565b613ea484613d89565b81016020851015613eb3578190505b613ec7613ebf85613d89565b830182613e66565b50505b505050565b600082821c905092915050565b6000613eed60001984600802613ecf565b1980831691505092915050565b6000613f068383613edc565b9150826002028217905092915050565b613f1f82613366565b67ffffffffffffffff811115613f3857613f37613008565b5b613f428254613d43565b613f4d828285613e89565b600060209050601f831160018114613f805760008415613f6e578287015190505b613f788582613efa565b865550613fe0565b601f198416613f8e86613d74565b60005b82811015613fb657848901518255600182019150602085019450602081019050613f91565b86831015613fd35784890151613fcf601f891682613edc565b8355505b6001600288020188555050505b505050505050565b600060a082019050613ffd6000830188612f05565b61400a6020830187612eae565b818103604083015261401c81866133ac565b905061402b6060830185612eae565b6140386080830184612eae565b9695505050505050565b7f4e6f7420617574686f72697a656420746f2062726964676520696e0000000000600082015250565b6000614078601b83613584565b915061408382614042565b602082019050919050565b600060208201905081810360008301526140a78161406b565b9050919050565b7f4e487b7100000000000000000000000000000000000000000000000000000000600052603260045260246000fd5b7f43616e6e6f742062726964676520696e207a65726f20746f6b656e7300000000600082015250565b6000614113601c83613584565b915061411e826140dd565b602082019050919050565b6000602082019050818103600083015261414281614106565b9050919050565b7f496e76616c696420726563697069656e74206164647265737300000000000000600082015250565b600061417f601983613584565b915061418a82614149565b602082019050919050565b600060208201905081810360008301526141ae81614172565b9050919050565b7f416d6f756e742065786365656473206272696467652d696e206c696d69740000600082015250565b60006141eb601e83613584565b91506141f6826141b5565b602082019050919050565b6000602082019050818103600083015261421a816141de565b9050919050565b7f4272696467652d696e20636f6f6c646f776e206e6f74206d6574000000000000600082015250565b6000614257601a83613584565b915061426282614221565b602082019050919050565b600060208201905081810360008301526142868161424a565b9050919050565b7f5472616e73616374696f6e20616c72656164792070726f636573736564000000600082015250565b60006142c3601d83613584565b91506142ce8261428d565b602082019050919050565b600060208201905081810360008301526142f2816142b6565b9050919050565b7f496e73756666696369656e74207661756c742062616c616e6365000000000000600082015250565b600061432f601a83613584565b915061433a826142f9565b602082019050919050565b6000602082019050818103600083015261435e81614322565b9050919050565b7f4e487b7100000000000000000000000000000000000000000000000000000000600052601260045260246000fd5b600061439f82612db3565b91506143aa83612db3565b9250826143ba576143b9614365565b5b828206905092915050565b60006040820190506143da6000830185612f05565b6143e76020830184612eae565b9392505050565b7f4f6e6c79207369676e6572732063616e207375626d6974207369676e6174757260008201527f6573000000000000000000000000000000000000000000000000000000000000602082015250565b600061444a602283613584565b9150614455826143ee565b604082019050919050565b600060208201905081810360008301526144798161443d565b9050919050565b7f4f7065726174696f6e20616c7265616479206578656375746564000000000000600082015250565b60006144b6601a83613584565b91506144c182614480565b602082019050919050565b600060208201905081810360008301526144e5816144a9565b9050919050565b7f5369676e617475726520616c7265616479207375626d69747465640000000000600082015250565b6000614522601b83613584565b915061452d826144ec565b602082019050919050565b6000602082019050818103600083015261455181614515565b9050919050565b7f4f7065726174696f6e20646561646c696e652070617373656400000000000000600082015250565b600061458e601983613584565b915061459982614558565b602082019050919050565b600060208201905081810360008301526145bd81614581565b9050919050565b600081905092915050565b7f19457468657265756d205369676e6564204d6573736167653a0a333200000000600082015250565b6000614605601c836145c4565b9150614610826145cf565b601c82019050919050565b6000819050919050565b61463661463182612f2f565b61461b565b82525050565b6000614647826145f8565b91506146538284614625565b60208201915081905092915050565b7f5369676e6174757265207369676e6572206d757374206265206d65737361676560008201527f2073656e64657200000000000000000000000000000000000000000000000000602082015250565b60006146be602783613584565b91506146c982614662565b604082019050919050565b600060208201905081810360008301526146ed816146b1565b9050919050565b7f496e76616c6964207369676e617475726520666f72205570646174655369676e60008201527f6572000000000000000000000000000000000000000000000000000000000000602082015250565b6000614750602283613584565b915061475b826146f4565b604082019050919050565b6000602082019050818103600083015261477f81614743565b9050919050565b7f5369676e6572206265696e67207265706c616365642063616e6e6f742061707060008201527f726f766500000000000000000000000000000000000000000000000000000000602082015250565b60006147e2602483613584565b91506147ed82614786565b604082019050919050565b60006020820190508181036000830152614811816147d5565b9050919050565b7f496e76616c6964207369676e6174757265000000000000000000000000000000600082015250565b600061484e601183613584565b915061485982614818565b602082019050919050565b6000602082019050818103600083015261487d81614841565b9050919050565b7f456e6f756768207369676e61747572657320616c726561647900000000000000600082015250565b60006148ba601983613584565b91506148c582614884565b602082019050919050565b600060208201905081810360008301526148e9816148ad565b9050919050565b600081546148fd81613d43565b6149078186613c6c565b9450600182166000811461492257600181146149375761496a565b60ff198316865281151582028601935061496a565b61494085613d74565b60005b8381101561496257815481890152600182019150602081019050614943565b838801955050505b50505092915050565b600061497f8289614625565b60208201915061498f8288613c0d565b60018201915061499f8287613c55565b6014820191506149af8286613bd7565b6020820191506149bf82856148f0565b91506149cb8284613bd7565b602082019150819050979650505050505050565b7f556e6b6e6f776e206f7065726174696f6e207479706500000000000000000000600082015250565b6000614a15601683613584565b9150614a20826149df565b602082019050919050565b60006020820190508181036000830152614a4481614a08565b9050919050565b7f496e76616c6964206272696467652d696e2063616c6c65720000000000000000600082015250565b6000614a81601883613584565b9150614a8c82614a4b565b602082019050919050565b60006020820190508181036000830152614ab081614a74565b9050919050565b7f4272696467652d696e2063616c6c657220616c72656164792073657400000000600082015250565b6000614aed601c83613584565b9150614af882614ab7565b602082019050919050565b60006020820190508181036000830152614b1c81614ae0565b9050919050565b7f4d617820616d6f756e74206d7573742062652067726561746572207468616e2060008201527f7a65726f00000000000000000000000000000000000000000000000000000000602082015250565b6000614b7f602483613584565b9150614b8a82614b23565b604082019050919050565b60006020820190508181036000830152614bae81614b72565b9050919050565b7f436f6f6c646f776e206d7573742062652067726561746572207468616e207a6560008201527f726f000000000000000000000000000000000000000000000000000000000000602082015250565b6000614c11602283613584565b9150614c1c82614bb5565b604082019050919050565b60006020820190508181036000830152614c4081614c04565b9050919050565b7f4e6f20746f6b656e7320746f2072656c696e7175697368000000000000000000600082015250565b6000614c7d601783613584565b9150614c8882614c47565b602082019050919050565b60006020820190508181036000830152614cac81614c70565b9050919050565b6000604082019050614cc86000830185612eae565b614cd56020830184612eae565b9392505050565b600060ff82169050919050565b614cf281614cdc565b82525050565b6000608082019050614d0d60008301876131b6565b614d1a6020830186614ce9565b614d2760408301856131b6565b614d3460608301846131b6565b9594505050505056fea2646970667358221220dac15e3cfd8f3c4d19431fe4356f6da517ff804921546c86a2bdb3b1d7bbebb964736f6c63430008140033",
  "linkReferences": {},
  "deployedLinkReferences": {}
}